:020000040000FA
:0410000021EF08F0E4
:081006000D600E82B3EF08F04B
:101018000E80D8CF01F0E0CF02F09EA016EF08F0C6
:1010280018EF08F01BEF08F09E900A4A0B2A02C03E
:10103800E0FF01C0D8FF0E901000D0EF08F00000CC
:1010480085EC08F0000ECD6E0B0ECF6EDC0ECE6E6A
:101058009E909D800C500A5C0D500B58D8A037EF1D
:1010680008F039EF08F02EEF08F0000E0B6E000EB6
:101078000A6E0AB042EF08F044EF08F047EF08F0B4
:10108800898048EF08F08990030E0A14086E000E54
:101098000B14096E08500910D8A455EF08F057EF43
:1010A80008F05AEF08F089825BEF08F08992070E82
:1010B8000A14086E000E0B14096E08500910D8A403
:1010C80068EF08F06AEF08F06DEF08F089846EEFBA
:1010D80008F089940F0E0A14086E000E0B14096E9E
:1010E80008500910D8A47BEF08F07DEF08F080EFD6
:1010F80008F089862EEF08F089962EEF08F021EF88
:1011080008F0700ED36E100ED26E800E9B6E000E1D
:10111800926E030E936EBC0E946E0F0E956E000EBB
:10112800966E000E0F015B6F000E5C6F000E5D6F18
:10113800000E5E6F000E5F6F000EF26ED08EF288AA
:10114800F19CF28EF28CF28AF194D59CD59AD596C0
:10115800F80ED516A20ED76E3F0ED66E1200F2A26A
:10116800B8EF08F0BAEF08F0CEEF08F0640E0C26DE
:10117800000E0D22E80E0C5C030E0D58D8A0C7EF28
:1011880008F0C9EF08F0CDEF08F0000E0D6E640E00
:101198000C6EF2920E921100CA0EF66E110EF76ED8
:1011A800000EF86E0900F5CF0CF00900F5CF0DF030
:1011B8000B6A0A6A0E900E92000EF86E000124EF78
:0411C80008F06400C7
:020000040020DA
:08000000FFFFFFFFFFFFFFFF00
:020000040030CA
:0E00000000255F3FFFD385FF0FC00FE00F40CC
:00000001FF
