:020000040000FA
:0410000027EF09F0DD
:081006000D604B825BEF09F065
:101018004B80D8CF0FF1E8CF10F1E0CF11F1F6CF28
:1010280012F1F7CF13F1F8CF14F1F5CF15F1F2A4BF
:1010380020EF08F022EF08F017EF09F00001C22BAB
:10104800050EC219D8A42BEF08F02DEF08F02FEFEA
:1010580008F0010EC26FC04BC12BC3C000F1C4C061
:1010680001F1000E0101036F050E026F52EC0CF046
:10107800010100510001C05DC151800A01010E6FDC
:101088000151800A0E59D8A04CEF08F04EEF08F035
:10109800FEEF08F00001BE4BBF2B000EC16F000E23
:1010A800C06FBFBF61EF08F0BF5109E1100EBE5D10
:1010B800D8A061EF08F063EF08F0FEEF08F0000E2B
:1010C800BF6F000EBE6FFEEF08F08D908D828D848D
:1010D8008B82030E0101036FE80E026FBEC000F1A0
:1010E800BFC001F152EC0CF000C108F101C109F1D7
:1010F800000E01010B6F0A0E0A6F75EC0DF001016D
:101108000851530F0E6F0EC1F6FF120EF76E08004E
:10111800F55033EC0FF012EF09F08D808D928D842D
:101128008B82000E0101036F640E026FBEC000F1D6
:10113800BFC001F152EC0CF000C108F101C109F186
:10114800000E01010B6F0A0E0A6F75EC0DF001011C
:101158000851530F0E6F0EC1F6FF120EF76E0800FE
:10116800F55033EC0FF012EF09F08D808D828D94DD
:101178008B82000E0101036F0A0E026FBEC000F1E0
:10118800BFC001F152EC0CF000C108F101C109F136
:10119800000E01010B6F0A0E0A6F75EC0DF00101CC
:1011A8000851530F0E6F0EC1F6FF120EF76E0800AE
:1011B800F55033EC0FF012EF09F08D808D828D849D
:1011C8008B92BEC008F1BFC009F1000E01010B6F80
:1011D8000A0E0A6F75EC0DF001010851530F0E6FDE
:1011E8000EC1F6FF120EF76E0800F55033EC0FF043
:1011F80012EF09F00001C251010AD8B469EF08F0F2
:10120800030AD8B491EF08F0010AD8B4B9EF08F08E
:10121800070AD8B4E1EF08F012EF09F08A0ED76E8A
:10122800B00ED66EF29415C1F5FF14C1F8FF13C1C4
:10123800F7FF12C1F6FF11C1E0FF10C1E8FF0FC1AF
:10124800D8FF4B9010005FEF0FF0005F419BD3C5B4
:10125800D6DE43DFD7CFDC1ED99E8E456C2074695D
:10126800656D706F2061637475616C2065732025EE
:101278006400456C206E7565766F207469656D70C5
:101288006F20657320256400526563696269646F25
:101298003A20007469656D706F3D3F007469656D33
:1012A800706F3D006572726F72000D0A0000E1CF29
:1012B8002CF0E2CF2DF0D9CF2EF0DACF2FF0F3CFEC
:1012C80030F0F4CF31F0F6CF32F0F7CF33F0F8CF7B
:1012D80034F0F5CF35F09EAA74EF09F076EF09F0F7
:1012E80045EF0AF0AECF36F0ABA27DEF09F07FEF05
:1012F80009F088EF09F0AB98AB889E9A000E3E6E15
:10130800FCEC0FF045EF0AF00B0E3E608EEF09F093
:1013180090EF09F09CEF09F03E503F0FD96EDA6A62
:1013280036C0DFFF3E2A3E503F0FD96EDA6ADF6AC9
:101338003D0E3618D8B4A3EF09F0A5EF09F0ADEFCC
:1013480009F0060E3E64ABEF09F0ADEF09F044EF8B
:101358000AF03F0E016E9B0E026E000E046E080E20
:10136800036E17EC0DF001500210D8B4BEEF09F06F
:10137800C0EF09F0C9EF09F00B0E3E18D8A4C7EF6B
:1013880009F0C9EF09F0E6EF09F0900E016E01507F
:10139800D8A4120E026ECBEC0EF03F0E016E026A5C
:1013A800CBEC0EF0B20E016E0150D8A4120E026EF4
:1013B800CBEC0EF037EC0BF0000E3E6EFCEC0FF0B1
:1013C80044EF0AF0740E3618D8B4EDEF09F0EFEFD9
:1013D80009F044EF0AF0690E3618D8B4F6EF09F0B0
:1013E800F8EF09F044EF0AF0650E3618D8B4FFEFAD
:1013F80009F001EF0AF044EF0AF06D0E3618D8B480
:1014080008EF0AF00AEF0AF044EF0AF0700E3618F7
:10141800D8B411EF0AF013EF0AF044EF0AF06F0E98
:101428003618D8B41AEF0AF01CEF0AF044EF0AF0A5
:101438003D0E3618D8B423EF0AF025EF0AF044EF32
:101448000AF03F0E3618D8B42CEF0AF02EEF0AF047
:1014580044EF0AF036C02BF0D00E2B26090E2B6471
:1014680038EF0AF03AEF0AF044EF0AF0AC0E016EDA
:101478000150D8A4120E026ECBEC0EF0E0EF09F08A
:101488009E9A35C0F5FF34C0F8FF33C0F7FF32C06D
:10149800F6FF31C0F4FF30C0F3FF2FC0DAFF2EC0D3
:1014A800D9FF2DC0E2FF2CC0E1FF4B9211000C5078
:1014B800D96EDA6ADFCFF6FF120EF76E0800F55024
:1014C800250AD8A46AEF0AF06CEF0AF025EF0BF0B2
:1014D8000C50D96EDA6ADF2A000E386E000E376EAD
:1014E80037C03DF039683A680C50D96EDA6ADF5077
:1014F800106E10C0F6FF120EF76E0800F550640A61
:10150800D8B489EF0AF08BEF0AF099EF0AF010C00F
:10151800F6FF120EF76E0800F550690AD8A497EF87
:101528000AF099EF0AF01FEF0BF00D50D96EDA6A46
:10153800020EDF26DF5CD96EDA6ADECF11F0DECF6D
:1015480012F00C50D96EDA6A1028DF6E200E156E74
:1015580012BEB1EF0AF0B4EF0AF0010EB5EF0AF0CF
:10156800000E0F6E150615509E0FD96EDA6A11C05F
:1015780001F012C002F0000E046E0A0E036ECEECEB
:101588000DF001C007F002C008F0B7EC0FF00750EB
:10159800300FDF6E11C001F012C002F0000E046EB1
:1015A8000A0E036EB5EC0CF001C011F002C012F087
:1015B80011501210D8B4E3EF0AF0E5EF0AF0EDEF9E
:1015C8000AF01550D8A4EBEF0AF0EDEF0AF0B6EFE9
:1015D8000AF01550D8B4F3EF0AF0F5EF0AF014EF5B
:1015E8000BF00F50D8B4FBEF0AF0FDEF0AF014EF40
:1015F8000BF0150615509E0FD96EDA6A2D0EDF6EA8
:1016080014EF0BF015509E0FD96EDA6ADF500E6E8C
:101618000E50016E026A0BC003F026EC0EF0152A7C
:10162800200E1518D8A41BEF0BF01DEF0BF006EFDA
:101638000BF036EF0BF00C50D96EDA6ADF2A36EF72
:101648000BF00C50D96EDA6ADFCFF6FF120EF76E88
:101658000800F550016E026A0BC003F026EC0EF08C
:101668001FEF0BF012003F0E016EA40E026E000E6B
:10167800046E070E036E17EC0DF001500210D8A48B
:1016880048EF0BF04AEF0BF0C1EF0BF03F0E016E85
:101698009B0E026E00EC0FF001500210D8A457EF19
:1016A8000BF059EF0BF06AEF0BF0600E1A6E630E39
:1016B8001B6EC3C01CF0C4C01DF09DEC0FF0600E83
:1016C800016E026ACBEC0EF0C9EF0BF0460E076E06
:1016D800CAEC0BF007C09CF008C09DF000019DBF4C
:1016E8007FEF0BF09D5109E1640E9C5DD8A07FEF60
:1016F8000BF081EF0BF0B7EF0BF09DBF8FEF0BF006
:10170800E90E9C5D030E9D59D8B08DEF0BF08FEF5D
:101718000BF0B7EF0BF09CC001F09DC002F0000E7B
:10172800046E640E036ECEEC0DF001500210D8A4C6
:10173800A0EF0BF0A2EF0BF0B7EF0BF09CC0C3F0DB
:101748009DC0C4F07E0E1A6E7A0E1B6EC3C01CF0CC
:10175800C4C01DF09DEC0FF07E0E016E026ACBEC4A
:101768000EF0C9EF0BF0AC0E016E0150D8A4120EAA
:10177800026ECBEC0EF0C9EF0BF0AC0E016E01500F
:10178800D8A4120E026ECBEC0EF01200000E0D6EF5
:10179800000E0C6E000E0B6ED3EF0BF0072A0750ED
:1017A800D96EDA6A200EDE18D8B4DDEF0BF0DFEF61
:1017B8000BF0D2EF0BF00750D96EDA6ADF50096EE2
:1017C800F70E0926040E0964ECEF0BF0EEEF0BF0B0
:1017D800D2EF0BF00750D96EDA6A2D0EDE18D8A4B6
:1017E800F8EF0BF0FAEF0BF0FFEF0BF0010E0B6EBA
:1017F800072A28EF0CF00750D96EDA6A2B0EDE188C
:10180800D8A409EF0CF00BEF0CF028EF0CF0FCEF6C
:101818000BF00CC001F00DC002F0000E046E0A0EB1
:10182800036EE9EC0FF00750D96EDA6ADF50096EE3
:101838000950015E000E025A300E01240C6E000E93
:1018480002200D6EFCEF0BF00750D96EDA6ADF50FC
:10185800096ED00E0926090E096435EF0CF037EF32
:101868000CF00DEF0CF00B50D8A43DEF0CF03FEF4F
:101878000CF04DEF0CF00CC009F00DC00AF0091E79
:101888000A1E094A0A2A09C007F00AC008F051EFDF
:101898000CF00CC007F00DC008F01200000E01019A
:1018A800056F03BF5CEF0CF05AEF0CF062EF0CF021
:1018B800026D031FD8B0032B010E056F01BF69EF3E
:1018C8000CF067EF0CF06FEF0CF0006D011FD8B053
:1018D800012B010E051B000E076F000E066F02514B
:1018E8000311D8B47AEF0CF07CEF0CF0A4EF0CF0F5
:1018F800010E046F84EF0CF0D89002370337042BE5
:1019080003AF89EF0CF08BEF0CF080EF0CF0D89060
:10191800063707370251005D03510159D8A097EFE8
:101928000CF099EF0CF09EEF0CF00251005F0351A0
:10193800015B0681D89003330233042F8BEF0CF040
:101948000551D8B4AAEF0CF0ACEF0CF0B0EF0CF0E6
:10195800066D071FD8B0072B06C100F107C101F1BA
:101968001200000E066E04BEBEEF0CF0BCEF0CF0C9
:10197800C4EF0CF0036C041ED8B0042A010E066EE6
:1019880002BECBEF0CF0C9EF0CF0D1EF0CF0016CFC
:10199800021ED8B0022A010E061A000E086E000EAA
:1019A800076E03500410D8B4DCEF0CF0DEEF0CF037
:1019B80006EF0DF0010E056EE6EF0CF0D890033639
:1019C8000436052A04AEEBEF0CF0EDEF0CF0E2EF75
:1019D8000CF0D890073608360350015C04500258C2
:1019E800D8A0F9EF0CF0FBEF0CF000EF0DF003506E
:1019F800015E0450025A0780D89004320332052E43
:101A0800EDEF0CF00650D8B40CEF0DF00EEF0DF022
:101A180012EF0DF0076C081ED8B0082A07C001F0B5
:101A280008C002F012000306D8A00406032806E145
:101A38000428D8A422EF0DF024EF0DF02FEF0DF0BD
:101A4800000E026E000E016E74EF0DF0012A022ADC
:101A58000306D8A004060150D96EDA6ADF50D8B45C
:101A680038EF0DF03AEF0DF064EF0DF002C0F6FF1D
:101A7800120EF76E0800F5500009D8B446EF0DF0C5
:101A880048EF0DF064EF0DF003500410D8B44FEF99
:101A98000DF051EF0DF064EF0DF00150D96EDA6AD8
:101AA800DF50056E02C0F6FF120EF76E0800F55003
:101AB8000518D8B462EF0DF064EF0DF02AEF0DF0C1
:101AC8000150D96EDA6ADF50056E02C0F6FF120EB9
:101AD800F76E0800F550055C016E026AD8A0020690
:101AE8001200000E01010D6F09BF7FEF0DF07DEFB1
:101AF8000DF085EF0DF0086D091FD8B0092B010E08
:101B08000D6F0BBF8CEF0DF08AEF0DF090EF0DF01D
:101B18000A6D0B1FD8B00B2B0A510B11D8B497EFD5
:101B28000DF099EF0DF0BDEF0DF0010E0C6FA1EF68
:101B38000DF0D8900A370B370C2B0BAFA6EF0DF032
:101B4800A8EF0DF09DEF0DF00A51085D0B510959F2
:101B5800D8A0B1EF0DF0B3EF0DF0B7EF0DF00A51CB
:101B6800085F0B51095BD8900B330A330C2FA8EF91
:101B78000DF00D51D8B4C3EF0DF0C5EF0DF0C9EF5E
:101B88000DF0086D091FD8B0092B08C108F109C16B
:101B980009F11200000E066E02BED7EF0DF0D5EF68
:101BA8000DF0DDEF0DF0016C021ED8B0022A010E17
:101BB800066E04BEE4EF0DF0E2EF0DF0E8EF0DF075
:101BC800036C041ED8B0042A03500410D8B4EFEFF5
:101BD8000DF0F1EF0DF015EF0EF0010E056EF9EFB7
:101BE8000DF0D89003360436052A04AEFEEF0DF04A
:101BF80000EF0EF0F5EF0DF00350015C04500258B1
:101C0800D8A009EF0EF00BEF0EF00FEF0EF0035017
:101C1800015E0450025AD89004320332052E00EFB8
:101C28000EF00650D8B41BEF0EF01DEF0EF021EFAA
:101C38000EF0016C021ED8B0022A01C001F002C0E9
:101C480002F012000350D8B42CEF0EF02EEF0EF075
:101C580036EF0EF00350D8A434EF0EF036EF0EF046
:101C68003BEF0EF0015011EC10F07AEF0EF003503C
:101C7800D96EDA6A0A0ED926DE50DE10D8B447EFDC
:101C88000EF049EF0EF062EF0EF00350D96EDA6AEB
:101C98000A0ED9260350E16EE26A030EE126DE50F1
:101CA800E65CE650800A086EDE50800A0858D8B014
:101CB80060EF0EF062EF0EF07AEF0EF00350D96E7F
:101CC800DA6A030ED926DF50046E0350D96EDA6A39
:101CD800DF500424D96EDA6A01C0DFFF0350D96EE1
:101CE800DA6A030ED926DE2A000EDD221200700EF3
:101CF800D36E100ED26E800E9B6E000E0F015B6FBE
:101D08005B859290929692929298929A929C9380E6
:101D1800939A939C000E5D6F94909492000E5E6F60
:101D28009598959A959C959E95869584958295808B
:101D3800000E5F6F000E966E000EF26ED08EF28867
:101D4800F19CF28EF28CF28AF1949D8A9F8AD59C3E
:101D5800D59AD596F80ED5168A0ED76EB00ED66ED1
:101D68007C8CF30E7C167C8A7C9E7B50E00B0F09E2
:101D78007B6E4D0EAF6E000EB06EAC94AC9CAC8A10
:101D8800AC98AB9CAB88400EB86EAB8E1200E7EFF8
:101D98000EF0ACA2D2EF0EF0D4EF0EF0CDEF0EF0B5
:101DA80001C0F6FF02C0F7FFF86A070EF76403D018
:101DB8000800F55005D0F6CFE1FFF7CFE2FFE75076
:101DC800AD6E014A022A01C0F6FF02C0F7FFF86AA9
:101DD800070EF76403D00800F55005D0F6CFE1FFF1
:101DE800F7CFE2FFE7500009D8A4FDEF0EF0FFEFB0
:101DF8000EF0CDEF0EF0120004EF0FF0012A022AC8
:101E08000150D96EDA6ADF50036E02C0F6FF120E77
:101E1800F76E0800F5500318D8A415EF0FF017EF68
:101E28000FF022EF0FF00150D96EDA6ADF50D8A414
:101E380020EF0FF022EF0FF002EF0FF00150D96EF4
:101E4800DA6ADF50036E02C0F6FF120EF76E080062
:101E5800F550035C016E026AD8A002061200010167
:101E6800016F8B808A8A8A9A8A8A899A8998000E51
:101E78000101026F000E026F01A145EF0FF047EF5D
:101E88000FF04AEF0FF08B804BEF0FF08B90D8904C
:101E98000131006F00C101F1899889888998022B66
:101EA800070E02655AEF0FF05CEF0FF040EF0FF0EE
:101EB800898A899A1200200EF66E200EF76E000E9F
:101EC800F86E0900F5CFC3F00900F5CFC4F000EEB5
:101ED8009EF0250EEE6AE806FDE100EE37F0140EDE
:101EE800EE6AE806FDE14B904B92000EF86E000199
:101EF80009EF10F017C019F08AEF0FF016C00BF0B9
:101F0800190E0C6E18C00DF05BEC0AF019C0F6FF44
:101F1800120EF76E0800F5500009D8A496EF0FF0DE
:101F280098EF0FF082EF0FF0000E176E000E166E8E
:101F380012001C0E1E6E1AC01FF0000E236E000E3B
:101F4800226E000E2A6E000E296E1F0E166E1BC022
:101F580017F01E0E186E7EEC0FF01A502224D96E60
:101F6800DA6ADF6A120008BEBCEF0FF0BEEF0FF0AE
:101F7800C4EF0FF007C007F008C008F0D0EF0FF06B
:101F880007C009F008C00AF0091E0A1E094A0A2AF1
:101F980009C007F00AC008F0120001C006F0DBEF24
:101FA8000FF00650D96EDA6A02C0DFFF062A04066F
:101FB800D8A00506042806E10528D8A4E6EF0FF006
:101FC800E8EF0FF0D5EF0FF0120001500302F3CF46
:101FD80005F0F4CF06F001500402F3500626025033
:101FE8000302F350062605C001F006C002F01200F5
:101FF8003F0E016E000E036E000E026E000E056E9F
:102008000C0E046ED1EC0FF012007BEC0EF08986FA
:0C2018000CEF10F027EF09F0640012003C
:020000040020DA
:08000000FFFFFFFFFFFFFFFF00
:020000040030CA
:0E00000000255F3FFFD385FF0FC00FE00F40CC
:00000001FF
