:020000040000FA
:04100000E1EF08F024
:021006000D607B
:101018002780D8CF1BF0E8CF1CF0E0CF1DF0F6CF2B
:101028001EF0F7CF1FF0F8CF20F0F5CF21F0F2A493
:1010380020EF08F022EF08F0D1EF08F0D10ED76EBC
:101048001F0ED66E030E0B642CEF08F02EEF08F07F
:1010580032EF08F0010E0B6EBDEF08F00B2ABDEF62
:1010680008F08B828D848D828D900F50E5EC09F00D
:101078000FEC0AF0226E2250D8B445EF08F047EF83
:1010880008F0D0EF08F022C019F0FF0E1926195009
:10109800E30F1A6E1AC0F6FF110EF76E0800F5CFAF
:1010A80026F0D0EF08F08B828D848D928D800E50C3
:1010B800E5EC09F00FEC0AF0226E2250D8B467EF85
:1010C80008F069EF08F0D0EF08F022C019F0FF0E21
:1010D80019261950DF0F1A6E1AC0F6FF110EF76E97
:1010E8000800F5CF26F0D0EF08F08B828D948D8222
:1010F8008D800D50E5EC09F00FEC0AF0226E2250BD
:10110800D8B489EF08F08BEF08F0D0EF08F022C0D0
:1011180019F0FF0E19261950DB0F1A6E1AC0F6FFC8
:10112800110EF76E0800F5CF26F0D0EF08F08B927D
:101138008D848D828D800C50E5EC09F00FEC0AF05F
:10114800226E2250D8B4ABEF08F0ADEF08F0D0EF24
:1011580008F022C019F0FF0E19261950D70F1A6E81
:101168001AC0F6FF110EF76E0800F5CF26F0D0EF83
:1011780008F00B50010AD8B435EF08F0030AD8B4C8
:1011880057EF08F0010AD8B479EF08F0070AD8B485
:101198009BEF08F0D0EF08F0F29421C0F5FF20C0D3
:1011A800F8FF1FC0F7FF1EC0F6FF1DC0E0FF1CC000
:1011B800E8FF1BC0D8FF2790100047EF0AF0005F38
:1011C800419BD3C5D6DE43DFD7CFDC1ED99E8E0A1E
:1011D8000B0C0D0306090F020508000104070E0099
:1011E8009CEC09F0898637EC0AF05F0E266E2628FB
:1011F800D8B401EF09F003EF09F0FBEF08F05F0E38
:101208002618D8B40AEF09F00CEF09F0FBEF08F044
:101218000A0E2618D8A413EF09F015EF09F039EFD4
:1012280009F0000E256E000E0C6E0CC00DF00DC0FE
:101238000EF00EC00FF00D0E246E2D0E236ED80E7C
:10124800E82EFED7232EFCD7242EFAD78996040E33
:10125800246E0C0E236E340EE82EFED7232EFCD7F8
:10126800242EFAD7898697EF09F0040E25603FEF00
:1012780009F041EF09F097EF09F00B0E2618D8B4E2
:1012880048EF09F04AEF09F097EF09F00C0E26181D
:10129800D8B451EF09F053EF09F097EF09F00D0EAC
:1012A8002618D8B45AEF09F05CEF09F097EF09F067
:1012B8000E0E2618D8B463EF09F065EF09F097EF22
:1012C80009F00F0E2618D8B46CEF09F06EEF09F08C
:1012D80097EF09F0252A0EC00FF00DC00EF00CC0D4
:1012E8000DF02650C70F236E23C0F6FF110EF76EC0
:1012F8000800F5CF0CF08996040E246E0C0E236EB0
:10130800340EE82EFED7232EFCD7242EFAD7898652
:101318000D0E246E2D0E236ED80EE82EFED7232E2A
:10132800FCD7242EFAD72668FBEF08F0E1EF08F087
:10133800700ED36E100ED26E800E9B6E000E0F01D3
:101348005B6F5B859290929692929298929A929CF9
:101358009380939A939C000E5D6F94909492000EE4
:101368005E6F9598959A959C959E9586958495829D
:101378009580000E5F6F000E966E000EF26ED08E96
:10138800F288F19CF28EF28CF28AF1949D8A9F8AFF
:10139800D59CD59AD596D550F80B0109D56ED10EA6
:1013A800D76E1F0ED66E4D0EAF6E000EB06EAC949B
:1013B800AC9CAC8AAC98AB9CAB88400EB86EAB8E3C
:1013C8001200176E8B808A8A8A9A8A8A899A8998E3
:1013D800000E186E000E186E17A0F5EF09F0F7EF63
:1013E80009F0FAEF09F08B80FBEF09F08B90D890A9
:1013F8001730166E16C017F0899889888998182AA8
:10140800070E18640AEF0AF00CEF0AF0F0EF09F083
:10141800898A899A1200000E166E83B016EF0AF0B8
:1014280018EF0AF01AEF0AF0010E166E83B21FEFDA
:101438000AF021EF0AF023EF0AF0020E166E83B4C9
:1014480028EF0AF02AEF0AF02CEF0AF0030E166EC6
:1014580083B631EF0AF033EF0AF035EF0AF0040EE5
:10146800166E16501200000E0F015B6F000E5C6FB7
:10147800000E5D6F93829384F19AF198F086F0885C
:10148800F08CF08E120000EE01F0150EEE6AE80600
:10149800FDE127902792000EF86E0001F4EF08F0A6
:00000001FF
