:020000040000FA
:0410000066EF08F09F
:081006000D6047827AEF0BF048
:101018004780D8CF2DF0E8CF2EF0E0CF2FF00A4A46
:101028000B2AE80E0A1807E1030E0B18D8A41FEFC5
:1010380008F021EF08F03FEF08F0000E0B6E000EED
:101048000A6E3FEF08F08C9E8C8C8C8A8C885DEF42
:1010580008F08C8E8C9C8C8A8C885DEF08F08C8EC6
:101068008C8C8C8A8C985DEF08F08C8E8C8C8C9A8A
:101078008C885DEF08F00AC02BF00BC02CF02C50C8
:10108800000AD8B44AEF08F05DEF08F02B50000AC8
:10109800D8B427EF08F0190AD8B42DEF08F02B0AB6
:1010A800D8B433EF08F0790AD8B439EF08F05DEF17
:1010B80008F0F2942FC0E0FF2EC0E8FF2DC0D8FF43
:1010C8004790100010EF0EF00050756C7361646F5C
:1010D800722052423020616374697661646F200A1D
:1010E800005F419BD3C5D6DE43DFD7CFDC1ED99E38
:1010F8008E53697374656D61206365727261646F84
:10110800206E6F2073652070756564652063617259
:1011180067617220636F6469676F2E0A00436F64AA
:1011280069676F73206361726761646F7320636FAF
:101138007272656374616D656E7465200A0053652B
:1011480020766120612063657272617220656C206F
:1011580073697374656D61200A0043617267617217
:10116800206C6F7320636F6469676F733A200A009D
:1011780056657269666963616E646F20736973741A
:10118800656D61200A0043657272616E646F20208C
:1011980073697374656D61200A0041627269656ED6
:1011A800646F202073697374656D61200A0056614D
:1011B8006C6F7220696E636F72726563746F2E0A4A
:1011C800004461746F20436F72726563746F2E0AF6
:1011D800004269656E76656E69646F73200A004F18
:1011E8006B2C20636965727261200A004F6B2C209A
:1011F80061627265200A000A4572726F720A004FB6
:051208006B200A00004C
:10120E0015BE13EF09F0155009E1050E145CD8A0B8
:10121E0013EF09F015EF09F0ADEF09F0000E156EA2
:10122E00000E146E0250032404240124246E245054
:10123E000618D8A425EF09F027EF09F052EF09F0B0
:10124E0016041710D8A42EEF09F030EF09F052EF64
:10125E0009F00104D8A436EF09F038EF09F052EF87
:10126E0009F002C030F00150EAEC0DF003C030F08E
:10127E000128EAEC0DF004C030F00150020FEAEC48
:10128E000DF0070E306E120E316ECCEC0CF0124AD1
:10129E00132AADEF09F024500618D8A459EF09F01F
:1012AE005BEF09F087EF09F016041710D8A462EF70
:1012BE0009F064EF09F087EF09F0020E0118D8A4C7
:1012CE006BEF09F06DEF09F087EF09F002C030F017
:1012DE000150020FEAEC0DF003C030F00150030F85
:1012EE00EAEC0DF004C030F00150040FEAEC0DF002
:1012FE00C90E306E110E316ECCEC0CF04EEF09F0C3
:10130E00FF0E306E110E316ECCEC0CF01604171071
:10131E00D8A494EF09F096EF09F09CEF09F0B60E01
:10132E00306E110E316ECCEC0CF016501710D8A496
:10133E00A3EF09F0A5EF09F0ADEF09F0F90E306E4D
:10134E00100E316ECCEC0CF0ADEF09F01200000E69
:10135E00346E000E366E000E376E000E386E000EB6
:10136E00396E06C030F007C031F008C032F009C047
:10137E0033F0D890333232323132303230C036F030
:10138E0031C037F032C038F033C039F0000E3A6E4B
:10139E0036A0D4EF09F0D6EF09F0D7EF09F0342AD2
:1013AE0036C030F037C031F038C032F039C033F0CB
:1013BE00D890333232323132303230C036F031C022
:1013CE0037F032C038F033C039F03A2A0B0E3A6497
:1013DE00F3EF09F0F5EF09F0CFEF09F03450010B00
:1013EE00346E3450D8A4FEEF09F000EF0AF00BEF84
:1013FE000AF01D50D8A406EF0AF008EF0AF00BEF22
:10140E000AF0000E4BEF0AF0000E356E000E3A6E2B
:10141E0036A014EF0AF016EF0AF017EF0AF0352A8D
:10142E0036C030F037C031F038C032F039C033F04A
:10143E00D890333232323132303230C036F031C0A1
:10144E0037F032C038F033C039F03A2A0B0E3A6416
:10145E0033EF0AF035EF0AF00FEF0AF03550010BBB
:10146E00356E3504D8A43EEF0AF040EF0AF04AEF8D
:10147E000AF01E50D8A446EF0AF048EF0AF04AEFE1
:10148E000AF008EF0AF0010E12001A0E2118D8A465
:10149E0053EF0AF055EF0AF05FEF0AF0AEEC09F0E9
:1014AE000009D8A45DEF0AF05FEF0AF062EF0AF0D0
:1014BE00000ECEEF0AF0000E216E000E0F6E000E23
:1014CE000E6E000E0D6E000E0C6E000E206E000ED7
:1014DE001F6E000E1E6E000E1D6E06C03EF007C083
:1014EE003FF008C040F009C041F0D8904132403280
:1014FE003F323E323E50426E436A446A456A3D5028
:10150E00D96EDA6A42C0DFFF06C03EF007C03FF078
:10151E0008C040F009C041F00A0E9BEF0AF0D890C7
:10152E00413240323F323E32E82E96EF0AF03E50C4
:10153E00426E436A446A456A3C50D96EDA6A42C0CA
:10154E00DFFF06C03EF007C03FF008C040F009C004
:10155E0041F0120EB8EF0AF0D890413240323F32CD
:10156E003E32E82EB3EF0AF03E50426E436A446AB2
:10157E00456A3B50D96EDA6A42C0DFFF000E066E36
:10158E00000E076E000E086E000E096E010E1200A0
:10159E00270E3B6E260E3C6E250E3D6E4CEC0AF071
:1015AE000009D8B4DDEF0AF0DFEF0AF027EF0BF0F9
:1015BE00010E1DEC0EF02718D8A4E8EF0AF0EAEFA2
:1015CE000AF000EF0BF0020E1DEC0EF02618D8A458
:1015DE00F3EF0AF0F5EF0AF000EF0BF0030E1DEC3F
:1015EE000EF02518D8B4FEEF0AF000EF0BF021EF45
:1015FE000BF0040E1DEC0EF02718D8A409EF0BF01B
:10160E000BEF0BF027EF0BF0050E1DEC0EF026186E
:10161E00D8A414EF0BF016EF0BF027EF0BF0060E1D
:10162E001DEC0EF02518D8A41FEF0BF021EF0BF0D8
:10163E0027EF0BF016C033F017C034F0C6EC0DF0E8
:10164E001200F2A42DEF0BF02FEF0BF079EF0BF051
:10165E00D10ED76E1F0ED66E030E236439EF0BF02C
:10166E003BEF0BF03FEF0BF0010E236E66EF0BF02E
:10167E00232A66EF0BF08B828D848D828D90DC0E8B
:10168E009CEC0DF079EF0BF08B828D848D928D801A
:10169E001E0E9CEC0DF079EF0BF08B828D948D82EB
:1016AE008D80410E9CEC0DF079EF0BF08B928D84BA
:1016BE008D828D809E0E9CEC0DF079EF0BF02350F9
:1016CE00010AD8B442EF0BF0030AD8B44BEF0BF07B
:1016DE00010AD8B454EF0BF0070AD8B45DEF0BF043
:1016EE0079EF0BF01200D9CF28F0DACF29F0F0A065
:1016FE0083EF0BF085EF0BF088EF0BF055EC0CF051
:10170E00F090F0A28DEF0BF08FEF0BF092EF0BF04D
:10171E0014EC0CF0F0929EAA97EF0BF099EF0BF0F1
:10172E00C5EF0BF0AECF2AF0ABA2A0EF0BF0A2EFFD
:10173E000BF0A4EF0BF0AB98AB882AC0ADFF9E98D0
:10174E009EA8ACEF0BF0AEEF0BF0A7EF0BF015BEB3
:10175E00BCEF0BF0155007E1060E145CD8B0BAEFD3
:10176E000BF0BCEF0BF0C4EF0BF01450010FD96E61
:10177E00DA6A2AC0DFFF144A152A9E9A29C0DAFFB8
:10178E0028C0D9FF47921100700ED36E100ED26E84
:10179E00800E9B6E000E0F015B6F5B859290929692
:1017AE0092929298929A929C9380939A939C000E06
:1017BE005D6F94909492000E5E6F9598959A959C9D
:1017CE00959E9586958495829580000E5F6F000E8E
:1017DE00966E000EF26ED08EF288F19CF28EF28C26
:1017EE00F28AF1949D8A9F8AD59CD59AD596D5502A
:1017FE00F80B0109D56ED10ED76E1F0ED66E4D0E9B
:10180E00AF6E000EB06EAC94AC9CAC8AAC98AB9C38
:10181E00AB88400EB86EAB8E1200140E226E1B0EED
:10182E0021601CEF0CF01EEF0CF054EF0CF0215069
:10183E00D8A424EF0CF026EF0CF028EF0CF0000EDD
:10184E001E6E190E2118D8A42FEF0CF031EF0CF0EC
:10185E0033EF0CF0000E1D6E212A202AD89006348C
:10186E00066E0734076E0834086E0934096EFE0ED4
:10187E000614066EFF0E0714076EFF0E0814086E90
:10188E00FF0E0914096ED8900C340C6E0D340D6ECB
:10189E00010E0C100C6E0D500D6E1200140E226EF9
:1018AE001B0E21605DEF0CF05FEF0CF092EF0CF071
:1018BE002150D8A465EF0CF067EF0CF069EF0CF037
:1018CE00010E1E6E190E2118D8A470EF0CF072EFD7
:1018DE000CF074EF0CF0010E1D6E212A1F2AD89009
:1018EE000634066E0734076E0834086E0934096E26
:1018FE00010E0610066E0750076E0850086E09504E
:10190E00096ED8900E340E6E0F340F6E010E0E103F
:10191E000E6E0F500F6E1200010E1DEC0EF0FF0A30
:10192E00D8A49CEF0CF09EEF0CF0BBEF0CF0040E65
:10193E001DEC0EF0FF0AD8A4A7EF0CF0A9EF0CF0E7
:10194E00BBEF0CF0000E176E010E166E000E116E30
:10195E00010E106E28EC0BF0F40E306E110E316E7F
:10196E00CCEC0CF0CBEF0CF0000E176E000E166EDA
:10197E00000E116E000E106E02EC0DF0E70E306EC2
:10198E00110E316ECCEC0CF01200E9EF0CF030C001
:10199E00F6FF31C0F7FFF86A070EF76403D00800B0
:1019AE00F55005D0F6CFE9FFF7CFEAFFEF50AD6E59
:1019BE009E989EA8E5EF0CF0E7EF0CF0E0EF0CF030
:1019CE00304A312A30C0F6FF31C0F7FFF86A070EF1
:1019DE00F76403D00800F55005D0F6CFE9FFF7CF36
:1019EE00EAFFEF500009D8A4FFEF0CF001EF0DF065
:1019FE00CEEF0CF01200F50EF66E100EF76E08001C
:101A0E00F5CF30F08D503018FE0B30188D6EF40E71
:101A1E00F66E100EF76E0800F5CF30F030468D5092
:101A2E003018FD0B30188D6EF40EF66E100EF76E2C
:101A3E000800F5CF30F0304630468D503018FB0B95
:101A4E0030188D6EF80EF66E100EF76E0800F5CF8C
:101A5E0030F030468B503018FD0B30188B6E81886D
:101A6E001200CBEC0BF000EC0EF0010E1DEC0EF0A4
:101A7E00466E460E306E316ACCEC0CF0462A46C0ED
:101A8E0030F0010EEAEC0DF08986D90E306E110E93
:101A9E00316ECCEC0CF0780E306E110E316ECCEC4B
:101AAE000CF093EC0CF010041110D8A461EF0DF0B3
:101ABE0063EF0DF065EF0DF06DEC0DF007EC09F036
:101ACE00CFEC0AF065EF0DF066EF08F0620E306EA7
:101ADE00110E316ECCEC0CF077EF0DF007EC09F037
:101AEE0013BE83EF0DF0135009E1020E125CD8A065
:101AFE0083EF0DF085EF0DF075EF0DF0250E306EC6
:101B0E00110E316ECCEC0CF0460E306E110E316EA5
:101B1E00CCEC0CF002EC0DF0000E176E000E166EF3
:101B2E00000E116E000E106E1200316E8B808A8ABE
:101B3E008A9A8A8A899A8998000E326E000E326EBF
:101B4E0031A0ACEF0DF0AEEF0DF0B1EF0DF08B80DC
:101B5E00B2EF0DF08B90D8903130306E30C031F046
:101B6E00899889888998322A070E3264C1EF0DF060
:101B7E00C3EF0DF0A7EF0DF0898A899A120033504A
:101B8E003410D8A4CDEF0DF0CFEF0DF0DDEF0DF04A
:101B9E00000E176E010E166E28EC0BF0A20E306EB4
:101BAE00110E316ECCEC0CF0E9EF0DF0000E176E4D
:101BBE00000E166E02EC0DF08E0E306E110E316EA2
:101BCE00CCEC0CF01200316EF29E31C0A9FF30C089
:101BDE00A8FFA684550EA76EAA0EA76EA682A6B261
:101BEE00FBEF0DF0FDEF0DF0F6EF0DF0A694F28E7B
:101BFE001200000E0F015B6F000E5C6F000E5D6F2A
:101C0E0093829384F19AF198F086F088F08CF08E9E
:101C1E00120000EE01F0270EEE6AE806FDE1479095
:101C2E004792000EF86E000138EF0DF0306E30C0A6
:101C3E00A9FFA69EA69C000EA86EA680A850120014
:00000001FF
