:020000040000FA
:0410000058EF08F0AD
:081006000D605F8272EF08F03B
:101018005F80D8CF5BF1E8CF5CF1E0CF5DF1F2A45F
:1010280018EF08F01AEF08F050EF08F0A20ED76E8C
:101038003F0ED66EEDC053F1EEC054F1000E010123
:10104800566F050E556F8FEC0BF053C14EF154C11E
:101058004FF101014E51501907E14F515119D8A4D0
:1010680038EF08F03AEF08F04CEF08F0522B100E6A
:101078005219D8A442EF08F044EF08F046EF08F000
:10108800000E526F52C189FF000E516F000E506F53
:10109800504B512BF294D58E5DC1E0FF5CC1E8FF47
:1010A8005BC1D8FF5F901000CBEF0DF000205469B2
:1010B800656D706F2061637475616C2000446174A4
:1010C8006F7320726563696269646F73002045728B
:0B10D800726F72002564002573000099
:1010E400E1CF41F0E2CF42F0D9CF43F0DACF44F080
:1010F400F3CF45F0F4CF46F0F6CF47F0F7CF48F002
:10110400F8CF49F0F5CF4AF09EAA8BEF08F08DEFA7
:1011140008F0F0EF09F0AECF55F0ABA294EF08F071
:1011240096EF08F098EF08F0AB98AB885A4A5B2A20
:101134005BBEA8EF08F05B5007E1080E5A5CD8B01C
:10114400A6EF08F0A8EF08F0D5EF08F05A50DD0F2D
:10115400D96EDA6A5550DE18D8B4B3EF08F0B5EF9B
:1011640008F0C2EF08F05A50D60FD96EDA6A55501B
:10117400DE18D8A4C0EF08F0C2EF08F0C8EF08F0FA
:10118400000E5D6E000E5C6ED5EF08F0000E5B6E17
:10119400000E5A6EE80E016E026A000E046E050E11
:1011A400036E28EC0EF0080E5A185B10D8A4DDEF7D
:1011B40008F0DFEF08F02CEF09F03F0E5518D8A423
:1011C400E6EF08F0E8EF08F0FAEF08F0B50E4F6E1E
:1011D4004FC02DF093EC0DF0EDC02DF0EEC02EF0CD
:1011E400ACEC0CF0000E5B6E000E5A6E2CEF09F0A6
:1011F400300E5518D8B401EF09F003EF09F00CEFE5
:1012040009F0310E5518D8A40AEF09F00CEF09F0D3
:1012140022EF09F0D00E55244B6E4C6AFF0E4C227F
:101224004BC001F04CC002F0030E046EE80E036ED6
:10123400FBEC0EF001C05CF002C05DF02CEF09F095
:10124400000E5B6E000E5A6ED50E506E50C02DF01F
:1012540093EC0DF0090E5A185B10D8A434EF09F082
:1012640036EF09F0A9EF09F0E80E5C1807E1030E68
:101274005D18D8A440EF09F042EF09F055EF09F0EA
:10128400300E5518D8B449EF09F04BEF09F055EF7B
:1012940009F0000E5B6E000E5A6ED50E516E51C0F1
:1012A4002DF093EC0DF05C505D10D8A45CEF09F0C8
:1012B4005EEF09F07AEF09F0300E556464EF09F03F
:1012C40066EF09F06EEF09F0390E55646CEF09F022
:1012D4006EEF09F07AEF09F0000E5B6E000E5A6EA5
:1012E400D50E526E52C02DF093EC0DF0A9EF09F01B
:1012F4005C505D10D8A481EF09F083EF09F0A9EFE9
:1013040009F0300E556489EF09F08BEF09F0A9EF6D
:1013140009F03A0E556091EF09F093EF09F0A9EF47
:1013240009F0D00E55244D6E4E6AFF0E4E224DC06C
:1013340001F04EC002F0000E046E640E036EFBEC6E
:101344000EF05C5001245C6E5D5002205D6E0A0E4E
:101354005A185B10D8B4B1EF09F0B3EF09F0BDEF40
:1013640009F00B0E5A185B10D8A4BBEF09F0BDEFBF
:1013740009F0EFEF09F0300E5518D8A4C4EF09F0C6
:10138400C6EF09F0E5EF09F00B0E5A185B10D8A46C
:10139400CEEF09F0D0EF09F0EFEF09F0C50E536E70
:1013A40053C02DF093EC0DF05CC0EDF05DC0EEF099
:1013B400000E0101516F000E506F000E5B6E000EA7
:1013C4005A6EEFEF09F0000E5B6E000E5A6ED50EEA
:1013D400546E54C02DF093EC0DF09E9A4AC0F5FF64
:1013E40049C0F8FF48C0F7FF47C0F6FF46C0F4FF06
:1013F40045C0F3FF44C0DAFF43C0D9FF42C0E2FF57
:1014040041C0E1FF5F9211000C50D96EDA6ADFCF60
:10141400F6FF100EF76E0800F550250AD8A415EF54
:101424000AF017EF0AF07DEF0BF00C50D96EDA6A70
:10143400DF2A000E576E000E566E56C05EF05868D6
:1014440059680C50D96EDA6ADF50126E12C0F6FF7A
:10145400100EF76E0800F550640AD8B434EF0AF0A1
:1014640036EF0AF044EF0AF012C0F6FF100EF76EE2
:101474000800F550690AD8A442EF0AF044EF0AF0D4
:10148400D0EF0AF00D50D96EDA6A020EDF26DF5C67
:10149400D96EDA6ADECF13F0DECF14F00C50D96EB9
:1014A400DA6A1228DF6E200E176E14BE5CEF0AF0A3
:1014B4005FEF0AF0010E60EF0AF0000E116E1706DE
:1014C4002E0E1724D96EDA6A010EDA2213C001F047
:1014D40014C002F0000E046E0A0E036E54EC0CF0FD
:1014E40001C007F002C008F0CAEC0EF00750300F3C
:1014F400DF6E13C001F014C002F0000E046E0A0E79
:10150400036EF2EC0BF001C013F002C014F01350A0
:101514001410D8B490EF0AF092EF0AF09AEF0AF0A0
:101524001750D8A498EF0AF09AEF0AF061EF0AF086
:101534001750D8B4A0EF0AF0A2EF0AF0C5EF0AF0F2
:101544001150D8B4A8EF0AF0AAEF0AF0C5EF0AF0D8
:1015540017062E0E1724D96EDA6A010EDA222D0E22
:10156400DF6EC5EF0AF02E0E1724D96EDA6A010E6B
:10157400DA22DF500E6E0E50016E026A0BC003F0C9
:1015840003EC0DF0172A200E1718D8A4CCEF0AF09C
:10159400CEEF0AF0B5EF0AF08EEF0BF0000E116EED
:1015A4000C50D96EDA6ADFCFF6FF100EF76E080022
:1015B400F550730AD8A4E1EF0AF0E3EF0AF0EBEF79
:1015C4000AF00C50D96EDA6ADF2A010E116E2DEF83
:1015D4000BF00C50D96EDA6ADFCFF6FF100EF76EFF
:1015E4000800F5506C0AD8A4FAEF0AF0FCEF0AF0F0
:1015F4002DEF0BF00C50D96EDA6ADF500E6E010E2F
:101604000E260EC0F6FF100EF76E0800F5506C0A99
:10161400D8A40FEF0BF011EF0BF02DEF0BF00C50E3
:10162400D96EDA6ADF500E6E020E0E260EC0F6FF79
:10163400100EF76E0800F550730AD8A424EF0BF0CF
:1016440026EF0BF02DEF0BF00C50D96EDA6A030E77
:10165400DF26E7EF0AF01150D8B433EF0BF035EF83
:101664000BF077EF0BF00D50D96EDA6A020EDF261D
:10167400DF5CD96EDA6ADECF0FF0DECF10F05DEFFB
:101684000BF00FC0F6FF10C0F7FFF86A070EF764FF
:1016940003D00800F55005D0F6CFE1FFF7CFE2FF05
:1016A400E7500E6E0E50016E026A0BC003F003EC9D
:1016B4000DF00F4A102A0FC0F6FF10C0F7FFF86AAA
:1016C400070EF76403D00800F55005D0F6CFE1FF0C
:1016D400F7CFE2FFE7500009D8A473EF0BF075EFE2
:1016E4000BF043EF0BF08EEF0BF00C50D96EDA6A6F
:1016F400DF2A8EEF0BF00C50D96EDA6ADFCFF6FFDB
:10170400100EF76E0800F550016E026A0BC003F06C
:1017140003EC0DF077EF0BF01200000E0101586F8F
:1017240056BF99EF0BF097EF0BF09FEF0BF0556D51
:10173400561FD8B0562B010E586F54BFA6EF0BF0AE
:10174400A4EF0BF0ACEF0BF0536D541FD8B0542B37
:10175400010E581B000E5A6F000E596F5551561149
:10176400D8B4B7EF0BF0B9EF0BF0E1EF0BF0010ECB
:10177400576FC1EF0BF0D89055375637572B56AFEC
:10178400C6EF0BF0C8EF0BF0BDEF0BF0D890593754
:101794005A375551535D56515459D8A0D4EF0BF0D4
:1017A400D6EF0BF0DBEF0BF05551535F5651545B02
:1017B4005981D89056335533572FC8EF0BF05851F1
:1017C400D8B4E7EF0BF0E9EF0BF0EDEF0BF0596D48
:1017D4005A1FD8B05A2B59C153F15AC154F11200AF
:1017E400000E066E04BEFBEF0BF0F9EF0BF001EFF9
:1017F4000CF0036C041ED8B0042A010E066E02BE5F
:1018040008EF0CF006EF0CF00EEF0CF0016C021E6A
:10181400D8B0022A010E061A000E086E000E076EDA
:1018240003500410D8B419EF0CF01BEF0CF043EF85
:101834000CF0010E056E23EF0CF0D890033604363D
:10184400052A04AE28EF0CF02AEF0CF01FEF0CF081
:10185400D890073608360350015C04500258D8A0CB
:1018640036EF0CF038EF0CF03DEF0CF00350015E56
:101874000450025A0780D89004320332052E2AEF0E
:101884000CF00650D8B449EF0CF04BEF0CF04FEFCE
:101894000CF0076C081ED8B0082A07C001F008C075
:1018A40002F01200000E066E02BE5DEF0CF05BEF5C
:1018B4000CF063EF0CF0016C021ED8B0022A010E8A
:1018C400066E04BE6AEF0CF068EF0CF06EEF0CF0DD
:1018D400036C041ED8B0042A03500410D8B475EF66
:1018E4000CF077EF0CF09BEF0CF0010E056E7FEF20
:1018F4000CF0D89003360436052A04AE84EF0CF0BD
:1019040086EF0CF07BEF0CF00350015C045002589E
:10191400D8A08FEF0CF091EF0CF095EF0CF0035082
:10192400015E0450025AD89004320332052E86EF29
:101934000CF00650D8B4A1EF0CF0A3EF0CF0A7EF15
:101944000CF0016C021ED8B0022A01C001F002C0E2
:1019540002F01200000E3B6E000E3A6E2DC03CF0F9
:101964002EC03DF0C6EF0CF03A4A3B2A3CC001F0D1
:101974003DC002F0000E046E0A0E036EF2EC0BF092
:1019840001C03CF002C03DF03DBED3EF0CF03D5031
:1019940006E13C04D8B0D1EF0CF0D3EF0CF0B6EF75
:1019A4000CF0300E1C6EDC0E1D6E2DC01EF02EC011
:1019B4001FF0B0EC0EF0000E3F6E000E3E6EF3EF23
:1019C4000CF03E50300FD96EDA6ADF50AD6E9E983F
:1019D4009EA8EFEF0CF0F1EF0CF0EAEF0CF03E4AAA
:1019E4003F2A3A503E5C3F50800A2F6E3B50800A9B
:1019F4002F58D8A000EF0DF002EF0DF0E3EF0CF03C
:101A040012000350D8B409EF0DF00BEF0DF013EFF3
:101A14000DF00350D8A411EF0DF013EF0DF018EFF3
:101A24000DF0015021EC0FF057EF0DF00350D96E7B
:101A3400DA6A0A0ED926DE50DE10D8B424EF0DF08F
:101A440026EF0DF03FEF0DF00350D96EDA6A0A0E5F
:101A5400D9260350E16EE26A030EE126DE50E65C0D
:101A6400E650800A086EDE50800A0858D8B03DEF70
:101A74000DF03FEF0DF057EF0DF00350D96EDA6A19
:101A8400030ED926DF50046E0350D96EDA6ADF5094
:101A94000424D96EDA6A01C0DFFF0350D96EDA6A12
:101AA400030ED926DE2A000EDD221200700ED36E3C
:101AB400100ED26E800E9B6E000E926E030E936E0D
:101AC400BC0E946E0F0E956E000E966E000E0F01F6
:101AD4005B6F000E5C6F000E5D6F000E5E6F000E9C
:101AE4005F6F000EF26ED08EF288F19CF28EF28C53
:101AF400F28AF194D59CD59AD596F80ED516A20EF5
:101B0400D76E3F0ED66E4D0EAF6E000EB06EAC9417
:101B1400AC9CAC8AAC98AB9CAB88400EB86EAB8ED8
:101B240012002DC001F096EC0EF001C0C4F002C00A
:101B3400C5F0600E1C6EDF0E1D6E2DC01EF01E5013
:101B4400D8A4100E1F6EB0EC0EF0000E0001C76F8B
:101B5400000EC66FBFEF0DF0C651600FD96EDA6A82
:101B6400DF50AD6E9E989EA8BAEF0DF0BCEF0DF05D
:101B7400B5EF0DF00001C64BC72BC451C65DC5516E
:101B8400C759D8A0C8EF0DF0CAEF0DF0AEEF0DF0B5
:101B94001200C80EF66E1D0EF76E000EF86E01EE02
:101BA40000F010EE2EF00900F5CFEEFFE550E15005
:101BB400FAE11C0EF66E1E0EF76E000EF86E00EEC5
:101BC400C8F010EE25F00900F5CFEEFFE550E15026
:101BD400FAE101EE2EF0250EEE6AE806FDE100EED4
:101BE40056F0090EEE6AE806FDE15F905F92000E82
:101BF400F86E000150EF0EF0000E0101646F000E4C
:101C0400636F18EF0EF063515E25D96E64515F2146
:101C1400DA6EDF50AD6E9E989EA813EF0EF015EFAE
:101C24000EF00EEF0EF00101634B642B6051635D07
:101C34006451800A626F6151800A6259D8A025EF0D
:101C44000EF027EF0EF005EF0EF01200000E076EF7
:101C5400000E066E40EF0EF006500124D96E0750B8
:101C64000220DA6EDF50AD6E9E989EA83CEF0EF017
:101C74003EEF0EF037EF0EF0064A072A0350065CDB
:101C84000750800A056E0450800A0558D8A04DEF0D
:101C94000EF04FEF0EF02EEF0EF0120058EC0DF098
:101CA400000E896E000E0101516F000E506F000E80
:101CB400526F000E0001EE6F640EED6F000E5D6E4C
:101CC400000E5C6E000E5B6E000E5A6E1B0E010160
:101CD4005E6F010E5F6F000E616F130E606FFEEC9E
:101CE4000DF073EF0EF058EF08F019C01BF083EFFE
:101CF4000EF018C00BF01B0E0C6E1AC00DF006ECA3
:101D04000AF01BC0F6FF100EF76E0800F55000092C
:101D1400D8A48FEF0EF091EF0EF07BEF0EF0000ED3
:101D2400196E000E186E120001C003F09BEF0EF046
:101D3400012A01C0F6FF100EF76E0800F5500009E5
:101D4400D8A4A7EF0EF0A9EF0EF09AEF0EF003500F
:101D5400015C016E026A01BE020612001E0E206EB4
:101D64001CC021F0000E256E000E246E000E2C6E99
:101D7400000E2B6E210E186E1DC019F0200E1A6E67
:101D840077EC0EF01C502424D96EDA6ADF6A120054
:101D940008BECFEF0EF0D1EF0EF0D7EF0EF007C074
:101DA40007F008C008F0E3EF0EF007C009F008C020
:101DB4000AF0091E0A1E094A0A2A09C007F00AC0C5
:101DC40008F01200204461746F73207265636962C5
:101DD40069646F732073696E206572726F7220205C
:101DE4004C6973746F2070617261207265636962FB
:101DF400697201500302F3CF05F0F4CF06F00150ED
:101E04000402F350062602500302F350062605C0CE
:101E140001F006C002F01200205469656D706F2055
:101E240061637475616C205449454D504F3D74692C
:0D1E3400656D706F3D206D736572726F7289
:021E420012008C
:020000040020DA
:08000000FFFFFFFFFFFFFFFF00
:020000040030CA
:0E00000000255F3FFFD385FF0FC00FE00F40CC
:00000001FF
