:020000040000FA
:04100000EAEF08F01B
:081006000D605F8288EF0BF022
:101018005F80D8CF4EF1E8CF4FF1E0CF50F1F6CF57
:1010280051F1F7CF52F1F8CF53F1F5CF54F1F2A4C3
:1010380020EF08F022EF08F0DAEF08F0D10ED76EB3
:101048001F0ED66E030E010124652DEF08F02FEF59
:1010580008F033EF08F0010E246FC6EF08F0242BD8
:10106800C6EF08F08B828D848D828D90285142ECDA
:1010780011F06EEC11F00101556F5551D8B447EFDE
:1010880008F049EF08F0D9EF08F0FF0E55254C6F2E
:101098004D6BFF0E4D23F50E4C25F66E110E4D21AE
:1010A800F76E0800F5CF5EF1D9EF08F08B828D84DA
:1010B8008D928D80275142EC11F06EEC11F00101F8
:1010C800556F5551D8B46BEF08F06DEF08F0D9EFB4
:1010D80008F0FF0E55254C6F4D6BFF0E4D23F10E9A
:1010E8004C25F66E110E4D21F76E0800F5CF5EF116
:1010F800D9EF08F08B828D948D828D80265142EC39
:1011080011F06EEC11F00101556F5551D8B48FEF05
:1011180008F091EF08F0D9EF08F0FF0E55254C6F55
:101128004D6BFF0E4D23ED0E4C25F66E110E4D2125
:10113800F76E0800F5CF5EF1D9EF08F08B928D8439
:101148008D828D80255142EC11F06EEC11F0010179
:10115800556F5551D8B4B3EF08F0B5EF08F0D9EF93
:1011680008F0FF0E55254C6F4D6BFF0E4D23E90E11
:101178004C25F66E110E4D21F76E0800F5CF5EF185
:10118800D9EF08F02451010AD8B436EF08F0030A61
:10119800D8B45AEF08F0010AD8B47EEF08F0070A6D
:1011A800D8B4A2EF08F0D9EF08F0F29454C1F5FFD3
:1011B80053C1F8FF52C1F7FF51C1F6FF50C1E0FF1C
:1011C8004FC1E8FF4EC1D8FF5F90100009EF11F042
:1011D800005F419BD3C5D6DE43DFD7CFDC1ED99E47
:1011E8008E0A0B0C0D0306090F02050800010407FF
:1011F8000E4F6B206672656375656E636961206169
:10120800637475616C697A6164612061203530307E
:10121800487A2E004F6B206672656375656E636948
:10122800612061637475616C697A61646120612011
:10123800323530487A2E004F6B20667265637565CB
:101248006E6369612061637475616C697A61646158
:10125800206120313235487A2E0056616C6F722039
:101268006465206672656375656E63696120696E81
:10127800636F72726563746F2E004F6B20467265E0
:101288006375656E6369612061637475616C697A01
:1012980061646120612000204572726F7220696E5E
:1012A80074656E7465206465206E7565766F2000C0
:1012B800204672656375656E636961206163747544
:1012C800616C200020487A20002564002573000006
:1012D80070EC0FF08986000E01015D6F000E5C6FE7
:1012E8005F0E5E6F290E5C25D96E010E5D21DA6EE8
:1012F800DF50596F7B505919E00B59197B6E5C4BC5
:101308005D2BFA0EE82EFED7210E01015C195D1146
:10131800D8A491EF09F093EF09F097EF09F0000EC8
:101328005D6F000E5C6F5E29D8B49DEF09F09FEFEA
:1013380009F076EF09F05F0E5E19D8B4A6EF09F050
:10134800A8EF09F076EF09F00A0E5E19D8A4AFEFFE
:1013580009F0B1EF09F0D9EF09F0000E5B6F5F0EED
:10136800256F25C126F126C128F1D60E276F0D0E4F
:1013780001015A6F2D0E596FD70EE82EFED7592F3F
:10138800FCD75A2FFAD700D08996040E01015A6F5C
:101398000C0E596F330EE82EFED7592FFCD75A2F53
:1013A800FAD700D0898682EF0BF0050E5B61DFEF7C
:1013B80009F0E1EF09F082EF0BF00B0E5E19D8B4DB
:1013C800E8EF09F0EAEF09F082EF0BF00C0E5E1976
:1013D800D8B4F1EF09F0F3EF09F082EF0BF00D0E3E
:1013E8005E19D8B4FAEF09F0FCEF09F082EF0BF0C0
:1013F8000E0E5E19D8B403EF0AF005EF0AF082EF7B
:101408000BF00F0E5E19D8B40CEF0AF00EEF0AF0CD
:1014180082EF0BF05B2B27C128F126C127F125C1EC
:1014280026F1D90E5E25F66EF76A110EF72208002E
:10143800F5CF25F11F0E5B25D96EDA6A010EDA2287
:101448005EC1DFFF8996040E01015A6F0C0E596FB9
:10145800330EE82EFED7592FFCD75A2FFAD700D0D3
:1014680089860D0E01015A6F2D0E596FD70EE82E81
:10147800FED7592FFCD75A2FFAD700D05F0E01019B
:101488002819D8A44AEF0AF04CEF0AF0A2EF0AF0A4
:10149800D60E2719D8A453EF0AF055EF0AF0A2EF99
:1014A8000AF05F0E2619D8A45CEF0AF05EEF0AF086
:1014B800A2EF0AF05F0E2519D8A465EF0AF067EFCE
:1014C8000AF0A2EF0AF05F0E286FD60E276F5F0EA4
:1014D800266F5F0E256FF90E566F110E576F220E8D
:1014E800586FB8EC11F0290E01015C25D96E010E78
:1014F8005D21DA6EDF50596F7B505919E00B59198D
:101508007B6E5C4B5D2BFA0EE82EFED7210E010197
:101518005C195D11D8A493EF0AF095EF0AF099EFE2
:101528000AF0000E5D6F000E5C6F0A0E5E19D8A4FB
:10153800A0EF0AF0A2EF0AF077EF0AF05F0E281981
:10154800D8A4A9EF0AF0ABEF0AF004EF0BF09B0E5A
:101558002719D8A4B2EF0AF0B4EF0AF004EF0BF0A1
:10156800D60E2619D8A4BBEF0AF0BDEF0AF004EF97
:101578000BF05F0E2519D8A4C4EF0AF0C6EF0AF0E5
:1015880004EF0BF05F0E286F9B0E276FD60E266FA9
:101598005F0E256F1C0E566F120E576F220E586F76
:1015A800B8EC11F0290E01015C25D96E010E5D2100
:1015B800DA6EDF50596F7B505919E00B59197B6E61
:1015C8005C4B5D2BD60E00D000D0E82EFCD700D0A7
:1015D800210E01015C195D11D8A4F5EF0AF0F7EFAF
:1015E8000AF0FBEF0AF0000E5D6F000E5C6F0A0E4A
:1015F8005E19D8A402EF0BF004EF0BF0D6EF0AF057
:101608005F0E2819D8A40BEF0BF00DEF0BF069EF64
:101618000BF0410E2719D8A414EF0BF016EF0BF0BE
:1016280069EF0BF09B0E2619D8A41DEF0BF01FEFE6
:101638000BF069EF0BF0D60E2519D8A426EF0BF0A6
:1016480028EF0BF069EF0BF05F0E286F410E276F44
:101658009B0E266FD60E256F3F0E566F120E576FD4
:10166800220E586FB8EC11F0290E01015C25D96ED5
:10167800010E5D21DA6EDF50596F7B505919E00B6E
:1016880059197B6E5C4B5D2B040E0101596FE40EFA
:10169800E82EFED7592FFCD70000210E01015C1956
:1016A8005D11D8A45AEF0BF05CEF0BF060EF0BF074
:1016B800000E5D6F000E5C6F0A0E5E19D8A467EF0E
:1016C8000BF069EF0BF038EF0BF0040E5B19D8A4A0
:1016D80070EF0BF072EF0BF082EF0BF09E0E286F9D
:1016E800880E276F880E266F7F0E256F620E566F45
:1016F800120E576F1F0E586FB8EC11F001015E699A
:1017080076EF09F0EAEF08F0E1CF46F0E2CF47F0D4
:10171800D9CF48F0DACF49F0F6CF4AF0F7CF4BF0FF
:10172800F8CF4CF0F5CF4DF0000E0001C96F000E58
:10173800C86F9EAAA2EF0BF0A4EF0BF059EF0DF0C3
:10174800AECFDCF0ABA2ABEF0BF0ADEF0BF0AFEF31
:101758000BF0AB98AB88FC2BFC51E80FD96EDA6A1A
:10176800DC51DE18D8A4BBEF0BF0BDEF0BF0C0EFD7
:101778000BF0FB2BC2EF0BF0000EFB6FFC51E20FDE
:10178800D96EDA6ADC51DE18D8A4CDEF0BF0CFEFB2
:101798000BF0D2EF0BF0FA2BD4EF0BF0000EFA6F30
:1017A800FC51DC0FD96EDA6ADC51DE18D8A4DFEF01
:1017B8000BF0E1EF0BF0E4EF0BF0F92BE6EF0BF099
:1017C800000EF96FFC51EE0FD96EDA6ADC51DE18A3
:1017D800D8A4F1EF0BF0F3EF0BF0F6EF0BF0F82BCA
:1017E800F8EF0BF0000EF86FFC51EE0FD96EDA6AC5
:1017F800DC51DE18D8B403EF0CF005EF0CF040EF25
:101808000CF0FC51E80FD96EDA6ADC51DE18D8B456
:1018180010EF0CF012EF0CF040EF0CF0FC51E20F5F
:10182800D96EDA6ADC51DE18D8B41DEF0CF01FEF60
:101838000CF040EF0CF0FC51DC0FD96EDA6ADC5189
:10184800DE18D8B42AEF0CF02CEF0CF040EF0CF0B7
:10185800000EFC6F000EFB6F000EFA6F000EF96FA2
:10186800000EF86F9F0ECA6F120ECB6FCAC032F00F
:10187800CBC033F0CFEC10F0030E0001F819D8A458
:1018880048EF0CF04AEF0CF06EEF0CF0000EFC6F16
:10189800000EFB6F000EFA6F000EF96F000EF86F66
:1018A800B80ECC6F120ECD6FCC0ECE6F120ECF6F5E
:1018B800CCC032F0CDC033F0CFEC10F0F6C032F02F
:1018C800F7C033F0C9EC0FF0CEC032F0CFC033F020
:1018D800CFEC10F0060E0001FB19D8A476EF0CF03F
:1018E80078EF0CF0BCEF0CF0000EFC6F000EFB6FF5
:1018F800000EFA6F000EF96F000EF86F000EF76F0A
:101908007D0EF66F820ED06F120ED16FCC0ED26F95
:10191800120ED36FD0C032F0D1C033F0CFEC10F03C
:10192800F6C032F0F7C033F0C9EC0FF0D2C032F095
:10193800D3C033F0CFEC10F0D90EF66E110EF76E5F
:101948000800F5CF28F1DA0EF66E110EF76E0800D2
:10195800F5CF27F1DB0EF66E110EF76E0800F5CF06
:1019680026F1DE0EF66E110EF76E0800F5CF25F1A2
:10197800060E0001FA19D8A4C4EF0CF0C6EF0CF05B
:101988000AEF0DF0000EFC6F000EFB6F000EFA6FF1
:10199800000EF96F000EF86F000EF76FFA0EF66F73
:1019A800820ED46F120ED56FCC0ED66F120ED76F73
:1019B800D4C032F0D5C033F0CFEC10F0F6C032F01E
:1019C800F7C033F0C9EC0FF0D6C032F0D7C033F00F
:1019D800CFEC10F0D90EF66E110EF76E0800F5CFA9
:1019E80028F1DB0EF66E110EF76E0800F5CF27F121
:1019F800DE0EF66E110EF76E0800F5CF26F1D90E41
:101A0800F66E110EF76E0800F5CF25F1060E0001EF
:101A1800F919D8A412EF0DF014EF0DF058EF0DF0EE
:101A2800000EFC6F000EFB6F000EFA6F000EF96FD0
:101A3800000EF86F010EF76FF40EF66F820ED86F76
:101A4800120ED96FCC0EDA6F120EDB6FD8C032F0DF
:101A5800D9C033F0CFEC10F0F6C032F0F7C033F055
:101A6800C9EC0FF0DAC032F0DBC033F0CFEC10F085
:101A7800D90EF66E110EF76E0800F5CF28F1DE0EBE
:101A8800F66E110EF76E0800F5CF27F1D90EF66E37
:101A9800110EF76E0800F5CF26F1D90EF66E110E6D
:101AA800F76E0800F5CF25F19E9A4DC0F5FF4CC0A2
:101AB800F8FF4BC0F7FF4AC0F6FF49C0DAFF48C03D
:101AC800D9FF47C0E2FF46C0E1FF5F9211000C500A
:101AD800D96EDA6ADECFF6FFDDCFF7FF0800F550E2
:101AE800250AD8A47AEF0DF07CEF0DF0FCEF0EF08C
:101AF8000C50D96EDA6ADE2A000EDD22000E4F6E17
:101B0800000E4E6E4EC058F0506851680C50D96E99
:101B1800DA6ADECF12F0DDCF13F012C0F6FF13C081
:101B2800F7FF0800F550640AD8B49DEF0DF09FEF59
:101B38000DF0ADEF0DF012C0F6FF13C0F7FF08006F
:101B4800F550690AD8A4ABEF0DF0ADEF0DF041EFF9
:101B58000EF00D50D96EDA6A020EDF26DF5CD96E00
:101B6800DA6ADECF15F0DECF16F0010E12240E6E03
:101B7800000E13200F6E0C50D96EDA6A0EC0DEFF0D
:101B88000FC0DDFF200E196E16BECDEF0DF0D0EFA1
:101B98000DF0010ED1EF0DF0000E146E1906000EB7
:101BA8001924D96EDA6A010EDA2215C001F016C0BE
:101BB80002F0000E046E0A0E036E22EC10F001C053
:101BC80007F002C008F010EC12F00750300FDF6E7B
:101BD80015C001F016C002F0000E046E0A0E036E66
:101BE8000EEC0FF001C015F002C016F015501610DB
:101BF800D8B401EF0EF003EF0EF00BEF0EF0195012
:101C0800D8A409EF0EF00BEF0EF0D2EF0DF019503B
:101C1800D8B411EF0EF013EF0EF036EF0EF01450AB
:101C2800D8B419EF0EF01BEF0EF036EF0EF01906D0
:101C3800000E1924D96EDA6A010EDA222D0EDF6E33
:101C480036EF0EF0000E1924D96EDA6A010EDA2288
:101C5800DF500E6E0E50016E026A0BC003F07AEC74
:101C680010F0192A200E1918D8A43DEF0EF03FEFF6
:101C78000EF026EF0EF00DEF0FF0000E146E0C5064
:101C8800D96EDA6ADECFF6FFDDCFF7FF0800F55030
:101C9800730AD8A452EF0EF054EF0EF05EEF0EF078
:101CA8000C50D96EDA6ADE2A000EDD22010E146E9F
:101CB800AAEF0EF00C50D96EDA6ADECFF6FFDDCF50
:101CC800F7FF0800F5506C0AD8A46DEF0EF06FEF1F
:101CD8000EF0AAEF0EF00C50D96EDA6ADECF0EF0D5
:101CE800DDCF0FF0010E0E26000E0F220EC0F6FFFC
:101CF8000FC0F7FF0800F5506C0AD8A486EF0EF065
:101D080088EF0EF0AAEF0EF00C50D96EDA6ADECF2B
:101D18000EF0DDCF0FF0020E0E26000E0F220EC0C1
:101D2800F6FF0FC0F7FF0800F550730AD8A49FEF1D
:101D38000EF0A1EF0EF0AAEF0EF00C50D96EDA6A91
:101D4800030EDE26000EDD225AEF0EF01450D8B432
:101D5800B0EF0EF0B2EF0EF0F4EF0EF00D50D96EBA
:101D6800DA6A020EDF26DF5CD96EDA6ADECF10F09F
:101D7800DECF11F0DAEF0EF010C0F6FF11C0F7FF5A
:101D8800F86A070EF76403D00800F55005D0F6CFBF
:101D9800E1FFF7CFE2FFE7500E6E0E50016E026AC8
:101DA8000BC003F07AEC10F0104A112A10C0F6FFAD
:101DB80011C0F7FFF86A070EF76403D00800F55062
:101DC80005D0F6CFE1FFF7CFE2FFE7500009D8A42E
:101DD800F0EF0EF0F2EF0EF0C0EF0EF00DEF0FF097
:101DE8000C50D96EDA6ADE2A000EDD220DEF0FF0F4
:101DF8000C50D96EDA6ADECFF6FFDDCFF7FF0800A8
:101E0800F550016E026A0BC003F07AEC10F0F4EFA3
:101E18000EF01200000E066E04BE17EF0FF015EF5D
:101E28000FF01DEF0FF0036C041ED8B0042A010E4A
:101E3800066E02BE24EF0FF022EF0FF02AEF0FF02C
:101E4800016C021ED8B0022A010E061A000E086E96
:101E5800000E076E03500410D8B435EF0FF037EFBB
:101E68000FF05FEF0FF0010E056E3FEF0FF0D89007
:101E780003360436052A04AE44EF0FF046EF0FF0A0
:101E88003BEF0FF0D890073608360350015C04503A
:101E98000258D8A052EF0FF054EF0FF059EF0FF09F
:101EA8000350015E0450025A0780D890043203326E
:101EB800052E46EF0FF00650D8B465EF0FF067EF28
:101EC8000FF06BEF0FF0076C081ED8B0082A07C098
:101ED80001F008C002F01200700ED36E100ED26E20
:101EE800800E9B6E000E0F015B6F5B859290929641
:101EF80092929298929A929C9380939A939C000EB5
:101F08005D6F94909492000E5E6F9598959A959C4B
:101F1800959E9586958495829580000E5F6F000E3C
:101F2800966E000EF26ED08EF288F19CF28EF28CD4
:101F3800F28AF1949D8A9F8AD59CD59AD596D550D8
:101F4800F80B0109D56ED10ED76E1F0ED66E4D0E49
:101F5800AF6E000EB06EAC94AC9CAC8AAC98AB9CE7
:101F6800AB88400EB86EAB8E7C8E7C8C7C8A7C50A5
:101F7800F30B08097C6E7C907B50E00B0F097B6E9D
:101F88007D8E300E7D127D8C1200000E406E000E8C
:101F98003F6E32C041F033C042F0E3EF0FF03F4AEA
:101FA800402A41C001F042C002F0000E046E0A0E41
:101FB800036E0EEC0FF001C041F002C042F042BEC9
:101FC800F0EF0FF0425006E14104D8B0EEEF0FF009
:101FD800F0EF0FF0D3EF0FF0350E206ED10E216E1B
:101FE800120E226E32C023F033C024F0F4EC11F04C
:101FF800000E446E000E436E12EF10F04350350F82
:10200800D96EDA6ADF50AD6E9E989EA80EEF10F07A
:1020180010EF10F009EF10F0434A442A3F50435C98
:102028004450800A346E4050800A3458D8A01FEFBC
:1020380010F021EF10F002EF10F01200000E066E03
:1020480002BE2BEF10F029EF10F031EF10F0016C09
:10205800021ED8B0022A010E066E04BE38EF10F038
:1020680036EF10F03CEF10F0036C041ED8B0042AD1
:1020780003500410D8B443EF10F045EF10F069EFA7
:1020880010F0010E056E4DEF10F0D89003360436AF
:10209800052A04AE52EF10F054EF10F049EF10F09B
:1020A8000350015C04500258D8A05DEF10F05FEFB8
:1020B80010F063EF10F00350015E0450025AD890FC
:1020C80004320332052E54EF10F00650D8B46FEFE7
:1020D80010F071EF10F075EF10F0016C021ED8B01F
:1020E800022A01C001F002C002F012000350D8B465
:1020F80080EF10F082EF10F08AEF10F00350D8A4B0
:1021080088EF10F08AEF10F08FEF10F0015045ECD7
:1021180012F0CEEF10F00350D96EDA6A0A0ED92603
:10212800DE50DE10D8B49BEF10F09DEF10F0B6EF44
:1021380010F00350D96EDA6A0A0ED9260350E16E00
:10214800E26A030EE126DE50E65CE650800A086E7D
:10215800DE50800A0858D8B0B4EF10F0B6EF10F08F
:10216800CEEF10F00350D96EDA6A030ED926DF508D
:10217800046E0350D96EDA6ADF500424D96EDA6A25
:1021880001C0DFFF0350D96EDA6A030ED926DE2AB2
:10219800000EDD22120032C001F033C002F0D7EC8D
:1021A80011F001C0C4F002C0C5F0600E206ED40E5C
:1021B800216E120E226E32C023F033C024F0F4ECEC
:1021C80011F0000E0001C76F000EC66FFDEF10F092
:1021D800C651600FD96EDA6ADF50AD6E9E989EA820
:1021E800F8EF10F0FAEF10F0F3EF10F00001C64B23
:1021F800C72BC451C65DC551C759D8A006EF11F009
:1022080008EF11F0ECEF10F01200540EF66E240EE9
:10221800F76E000EF86E01EE29F010EE20F00900BE
:10222800F5CFEEFFE550E150FAE1740EF66E240E9C
:10223800F76E000EF86E00EEDDF010EE15F00900F6
:10224800F5CFEEFFE550E150FAE101EE00F0290E7E
:10225800EE6AE806FDE100EEF2F00B0EEE6AE80623
:10226800FDE100EE4EF0110EEE6AE806FDE15F902A
:102278005F92000EF86E00016CEF09F001014A6FE1
:102288008B808A8A8A9A8A8A899A8998000E01019B
:102298004B6F000E4B6F4AA154EF11F056EF11F03F
:1022A80059EF11F08B805AEF11F08B90D8904A318A
:1022B800496F49C14AF18998898889984B2B070E3B
:1022C8004B6569EF11F06BEF11F04FEF11F0898A50
:1022D800899A1200000E0101496F83B076EF11F060
:1022E80078EF11F07AEF11F0010E496F83B27FEFAA
:1022F80011F081EF11F083EF11F0020E496F83B4F2
:1023080088EF11F08AEF11F08CEF11F0030E496F8E
:1023180083B691EF11F093EF11F095EF11F0040EE1
:10232800496F495112001BC01EF01CC01FF0A5EFD9
:1023380011F01AC00BF01E0E0C6E1DC00DF06BECE8
:102348000DF01EC0F6FF1FC0F7FF0800F55000098A
:10235800D8A4B1EF11F0B3EF11F09DEF11F0000E1A
:102368001B6E000E1A6E1200CDEF11F056C1F6FF6B
:1023780057C1F7FF0800F5CFADFF9E989EA8C7EF9D
:1023880011F0C9EF11F0C2EF11F001015807564BD7
:10239800572B01015851D8A4D4EF11F0D6EF11F002
:1023A800BAEF11F0120001C003F002C004F0DFEF31
:1023B80011F0014A022A01C0F6FF02C0F7FF080027
:1023C800F5500009D8A4EBEF11F0EDEF11F0DDEFB7
:1023D80011F00350015C016E04500258026E1200A5
:1023E800230E256E20C026F0000E2A6E000E296EE0
:1023F800000E316E000E306E260E1A6E21C01BF0D4
:1024080022C01CF0250E1D6E97EC11F020502924D7
:10241800D96EDA6ADF6A120008BE15EF12F017EFFC
:1024280012F01DEF12F007C007F008C008F029EFFE
:1024380012F007C009F008C00AF0091E0A1E094A6E
:102448000A2A09C007F00AC008F0120000000103B8
:1024580005070A0D101316191B1C1E1F1F1F1E1C13
:102468001B191613100D0A0705030100463D3035E8
:102478003030463D30323530463D30313235463DDC
:012488003F14
:02248A0012003E
:00000001FF
