:020000040000FA
:04100000EBEF09F019
:101006000D600000320E10181110D8A40DEF08F074
:101016000FEF08F017EF08F0000E026E000E016EDB
:10102600010E036E92EC09F0640E10181110D8A48C
:101036001FEF08F021EF08F02DEF08F0000E026E0A
:10104600000E016E000E036E92EC09F0000E116E9A
:10105600000E106E320E0E180F10D8A435EF08F0E1
:1010660037EF08F03FEF08F0000E026E010E016E3A
:10107600010E036E92EC09F04B0E0E180F10D8A459
:1010860047EF08F049EF08F055EF08F0000E026E42
:10109600010E016E000E036E92EC09F0000E0F6E4B
:1010A600000E0E6E0F0E0C180D10D8A45DEF08F092
:1010B6005FEF08F067EF08F0000E026E020E016E99
:1010C600010E036E92EC09F0410E0C180D10D8A417
:1010D6006FEF08F071EF08F07DEF08F0000E026E7A
:1010E600020E016E000E036E92EC09F0000E0D6EFC
:1010F600000E0C6E320E0A180B10D8A485EF08F0FD
:1011060087EF08F08FEF08F0000E026E030E016EF7
:10111600010E036E92EC09F0960E0A180B10D8A475
:1011260097EF08F099EF08F0A5EF08F0000E026EB1
:10113600030E016E000E036E92EC09F0000E0B6EAC
:10114600000E0A6E104A112A0E4A0F2A0C4A0D2A60
:101156000A4A0B2A9C0E066ED70EE82EFED7062EDE
:10116600FCD700001200CFEC09F0000E096EF6EC79
:1011760009F006EF09F005EC08F015EF09F0000E8E
:10118600026E000E016E010E036E92EC09F0000E67
:10119600026E010E016E010E036E92EC09F0000E56
:1011A600026E020E016E010E036E92EC09F0000E45
:1011B600026E030E016E010E036E92EC09F015EF3E
:1011C60009F0000E026E000E016E000E036E92EC28
:1011D60009F0000E026E010E016E000E036E92EC17
:1011E60009F0000E026E020E016E000E036E92EC06
:1011F60009F0000E026E030E016E000E036E92ECF5
:1012060009F015EF09F00950000AD8B4BEEF08F04E
:10121600010AD8B4C2EF08F0030AD8B4E4EF08F024
:1012260015EF09F081B01AEF09F01CEF09F006EF8F
:1012360009F0010E0924016E026A000E0222000E58
:10124600046E030E036E3AEC09F00150096E1F0E90
:10125600086E710E076E1E0EE82EFED7072EFCD7FF
:10126600082EFAD700D006EF09F000EF08F0000EBE
:10127600066E02BE43EF09F041EF09F049EF09F0AF
:10128600016C021ED8B0022A010E066E04BE50EF93
:1012960009F04EEF09F054EF09F0036C041ED8B0C4
:1012A600042A03500410D8B45BEF09F05DEF09F08F
:1012B60081EF09F0010E056E65EF09F0D89003364F
:1012C6000436052A04AE6AEF09F06CEF09F061EF07
:1012D60009F00350015C04500258D8A075EF09F0DC
:1012E60077EF09F07BEF09F00350015E0450025AD4
:1012F600D89004320332052E6CEF09F00650D8B4AC
:1013060087EF09F089EF09F08DEF09F0016C021EF5
:10131600D8B0022A01C001F002C002F01200B0EFFC
:1013260009F003B002D0899001D08980CEEF09F090
:1013360003B002D0899201D08982CEEF09F003B0C2
:1013460002D0899401D08984CEEF09F003B002D08F
:10135600899601D08986CEEF09F001C004F002C05B
:1013660005F00550000AD8B4BBEF09F0CEEF09F03E
:101376000450000AD8B494EF09F0010AD8B49BEFE0
:1013860009F0030AD8B4A2EF09F0010AD8B4A9EF0C
:1013960009F0CEEF09F01200700ED36E100ED26E69
:1013A600800E9B6E000E926E030E936EBC0E946EB4
:1013B6000F0E956E000E966E000E0F015B6F000EFF
:1013C6005C6F000E5D6F000E5E6F000E5F6F1200A9
:1013D60000EE0AF0080EEE6AE806FDE1000EF86E71
:1013E6000001B6EF08F089908992899489961200D7
:020000040020DA
:08000000FFFFFFFFFFFFFFFF00
:020000040030CA
:0E00000000255F3FFFD385FF0FC00FE00F40CC
:00000001FF
