:020000040000FA
:041000007AEF0AF089
:101006000D60000102030405060708090045617228
:101016006C6F73004361726C6100506564726F009F
:0110260000C9
:10102800550E0001A16F550EA06F000E996F000EAE
:10103800986F000E9C6F000E9C6FD890A131146EB3
:10104800A031986F14C099F09C2B050E9C652FEF6A
:1010580008F031EF08F021EF08F032EC0AF0000E4A
:1010680000019F6F9F51600FD96EDA6A9F51050F7B
:10107800DF6E9F2B090E9F6544EF08F046EF08F0DE
:1010880036EF08F0000EA56FB40EA46F000ED06FF7
:10109800A00ECF6F000ECE6F140ECD6F010ED16F64
:1010A800D20E016E200E026E4EEC0AF0000E000108
:1010B8009B6F000E9A6F6A0E016E130E026E4EEC55
:1010C8000AF07E0E016E1A0E026E4EEC0AF06A0EDF
:1010D800016E7E0E026E000E046E030E036EACEC03
:1010E80009F001C09AF002C09BF0010E00019D6F4B
:1010F800000E9E6F000E936F9D0E926F9DC0D9FFDC
:101108009EC0DAFF080EDE6E000EDD6E9DC0D9FFB0
:101118009EC0DAFFDE2A000EDD229DC0D9FF9EC0E8
:10112800DAFF050EDE6E000EDD6E000E956F000E06
:10113800946F000E976F000E966F940E076E960EC2
:10114800086E000E0A6E090E096E000E0C6E080E6F
:101158000B6E13EC0AF0000E0001C96F000ECA6F87
:10116800000ECB6F000ECC6F000E176E050E166EBC
:10117800140E026E030E016E000E046E390E036E1D
:10118800EFEC09F001C0C9F002C0CAF003C0CBF00F
:1011980004C0CCF00A0E0001C919CA11CB11CC1138
:1011A800D8A4D9EF08F0DBEF08F0E5EF08F0000E5F
:1011B800C96F000ECA6F000ECB6F000ECC6FEDEF3B
:1011C80008F0010EC96F000ECA6F000ECB6F000E3B
:1011D800CC6F000EC56F000EC66F000EC76F000EF5
:1011E800C86F010EC927000ECA23CB23CC23020ED9
:1011F800C525C56F000EC621C66F000EC721C76F73
:10120800000EC821C86FC8BF15EF09F0C851C71133
:10121800C61109E10A0EC55DD8A015EF09F017EF50
:1012280009F0F5EF08F0050EC56F000EC66F000E49
:10123800C76F000EC86F29EF09F0FF0EC527FF0E14
:10124800C623FF0EC723FF0EC823C8BF39EF09F016
:10125800C851C711C61107E1030EC55DD8B037EFF5
:1012680009F039EF09F021EF09F0A1EF09F08990B1
:101278001F0E156E710E146E1E0EE82EFED7142E5C
:10128800FCD7152EFAD700D089801F0E156E710E67
:10129800146E1E0EE82EFED7142EFCD7152EFAD784
:1012A80000D08992100E156E390E146E0E0EE82EAF
:1012B800FED7142EFCD7152EFAD789821F0E156E6D
:1012C800710E146E1E0EE82EFED7142EFCD7152EA6
:1012D800FAD700D089941F0E156E710E146E1E0E6B
:1012E800E82EFED7142EFCD7152EFAD700D0898405
:1012F8000A0E156E220E146EA10EE82EFED7142EBD
:10130800FCD7152EFAD7000089963D0E156EE10E12
:10131800146E400EE82EFED7142EFCD7152EFAD7E1
:1013280089861F0E156E710E146E1E0EE82EFED7DE
:10133800142EFCD7152EFAD700D081B0A6EF09F0ED
:10134800A8EF09F03BEF09F0A1EF09F000EF08F072
:1013580001C007F002C008F0B7EF09F00306D8A0F3
:101368000406072A082A03500410D8B4BEEF09F06F
:10137800C0EF09F0CFEF09F00850D96EDA6A0750CC
:10138800E16EE26ADE50E618D8B4CDEF09F0CFEF8F
:1013980009F0B2EF09F003500410D8A4D6EF09F011
:1013A800D8EF09F0DEEF09F0000E026E000E016EB4
:1013B800EEEF09F00750D96EDA6ADF50056E085073
:1013C800D96EDA6ADF50066E0650055C016E026A55
:1013D800D8A002061200000E0C6E000E0B6E035011
:1013E8000124056E04500220066E05C007F006C0F1
:1013F80008F0000E08BEFF0E096E0A6E010E0C6E94
:101408002C0E0B6E000E176E640E166E07C001F0E0
:1014180008C002F009C003F00AC004F012000B5023
:1014280009240D6E0C500A200E6E0750D96EDA6A28
:101438000DC0DEFF0EC0DDFF09C001F00AC002F0DA
:101448000BC003F00CC004F067EC0AF00850D96E2A
:10145800DA6A01C0DEFF02C0DDFF1200700ED36E33
:10146800100ED26E800E9B6E000E926E030E936E5F
:10147800BC0E946E0F0E956E000E966E000E0F0148
:101488005B6F000E5C6F000E5D6F000E5E6F000EEE
:101498005F6F120001C004F0022A0204036E03C049
:1014A800F6FF100EF76E042A0404D96EDA6A0800F3
:1014B800F5CFDFFFDF50D8A464EF0AF066EF0AF03B
:1014C80050EF0AF0120001500302F3CF05F0F4CFF9
:1014D80006F001500402F350062602500302F350AE
:1014E800062605C001F006C002F01200176A166A47
:0A14F800000EF86E000114EF08F07A
:020000040020DA
:08000000FFFFFFFFFFFFFFFF00
:020000040030CA
:0E00000000255F3FFFD385FF0FC00FE00F40CC
:00000001FF
