:020000040000FA
:04000000CEEF14F03B
:0D08000000696E66006E616E0025660000E6
:10080E00000E0001D16F30C0D4F031C0D5F032C02F
:10081E00D6F033C0D7F0D7BF19EF04F017EF04F0BE
:10082E002DEF04F0010ED16FD4C001F0D5C002F04F
:10083E00D6C003F0D7C004F099EC14F001C0D4F088
:10084E0002C0D5F003C0D6F004C0D7F0000E0001F0
:10085E00D36F000ED26F51C0C1F052C0C2F0D15151
:10086E00D8B43CEF04F03EEF04F052EF04F0D15157
:10087E00D8A444EF04F046EF04F04CEF04F0000E61
:10088E00B76F2B0EB66F50EF04F0000EB76F2D0E34
:10089E00B66FB6C0D1F0D4C001F0D5C002F0D6C04C
:1008AE0003F0D7C004F0FBEC11F001040210D8A441
:1008BE0063EF04F065EF04F091EF04F00001D15105
:1008CE00D8B46CEF04F06EEF04F077EF04F0D1C003
:1008DE0060F0C107D8A0C207000ED36F010ED26F11
:1008EE00D251600F016E010E026EB5EC14F00001D4
:1008FE00FD0EC127FF0EC2232EC010F02FC011F027
:10090E00600E126EC1C013F0C2C014F0B5EC13F03D
:10091E00DEEF08F0D4C001F0D5C002F0D6C003F06F
:10092E00D7C004F0FBEC11F001500210D8A4A2EFD6
:10093E0004F0A4EF04F0BFEF04F00001D151D8B4DD
:10094E00ABEF04F0ADEF04F0B6EF04F0D1C060F001
:10095E00C107D8A0C207000ED36F010ED26FD251BD
:10096E00600F016E050E026EB5EC14F07EEF04F012
:10097E00000E0001D86F000ED96F800EDA6F3F0E99
:10098E00DB6F000EC06F000EBF6FD4C001F0D5C07C
:10099E0002F0D6C003F0D7C004F0000E056E000EB4
:1009AE00066E000E076E000E086EDFEC12F0D8B069
:1009BE00E3EF04F0E5EF04F0C4EF05F0F2EF04F01E
:1009CE00C3C0D8F0C4C0D9F0C5C0DAF0C6C0DBF0E1
:1009DE000001BF4BC02BD8C001F0D9C002F0DAC065
:1009EE0003F0DBC004F0000E056E000E066E200E46
:1009FE00076E410E086E3FEC0BF001C0C3F002C053
:100A0E00C4F003C0C5F004C0C6F00001C351D45DEC
:100A1E00016EC451D559026EC551D659036EC651D9
:100A2E00D759046EEAEC13F004BE29EF05F004501A
:100A3E000310021009E1020E015CD8A029EF05F0A7
:100A4E002BEF05F0E7EF04F0C3C01AF0C4C01BF0A3
:100A5E00C5C01CF0C6C01DF0D4C01EF0D5C01FF01E
:100A6E00D6C020F0D7C021F079EC11F0D8A042EF1B
:100A7E0005F044EF05F0E7EF04F00001D851D45D26
:100A8E00016ED951D559026EDA51D659036EDB512A
:100A9E00D759046EEAEC13F004BE63EF05F0045070
:100AAE000310021007E1020E015CD8B061EF05F0F1
:100ABE0063EF05F0ABEF05F0D8C0D4F0D9C0D5F098
:100ACE00DAC0D6F0DBC0D7F0C4EF05F0D8C001F025
:100ADE00D9C002F0DAC003F0DBC004F0000E056EE0
:100AEE00000E066E200E076E410E086E54EC0DF0D1
:100AFE0001C0D8F002C0D9F003C0DAF004C0DBF0B8
:100B0E000001BF07D8A0C007D851D45D016ED951DE
:100B1E00D559026EDA51D659036EDB51D759046E90
:100B2E00EAEC13F004BEA9EF05F004500310021016
:100B3E0007E1020E015CD8B0A7EF05F0A9EF05F0B2
:100B4E00ABEF05F063EF05F0D4C01AF0D5C01BF083
:100B5E00D6C01CF0D7C01DF0D8C01EF0D9C01FF0F3
:100B6E00DAC020F0DBC021F079EC11F0D8A0C2EF92
:100B7E0005F0C4EF05F06DEF05F034C0B9F0B9C063
:100B8E00BAF054BECDEF05F0CFEF05F0D5EF05F07E
:100B9E0053C0B2F054C0B3F0DAEF05F0000E00010E
:100BAE00B36F060EB26FB2C0BDF0B3C0BEF000019F
:100BBE00BD4BBE2B660EBA19D8A4E8EF05F0EAEFCE
:100BCE0005F00AEF06F0C0BFF1EF05F0EFEF05F00C
:100BDE00FDEF05F0000ED86F000ED96F800EDA6FA4
:100BEE003F0EDB6F000EC06F000EBF6F670EB919A0
:100BFE00D8B404EF06F006EF06F00AEF06F0BF5188
:100C0E00BD27C051BE23000EC86F000EC76FD4C0E3
:100C1E00C9F0D5C0CAF0D6C0CBF0D7C0CCF0D8C082
:100C2E00C3F0D9C0C4F0DAC0C5F0DBC0C6F09BEF8C
:100C3E0006F0C9C001F0CAC002F0CBC003F0CCC0B0
:100C4E0004F0D8C005F0D9C006F0DAC007F0DBC05A
:100C5E0008F054EC0DF001C01AF002C01BF003C0F6
:100C6E001CF004C01DF021EC0FF01AC0CDF01BC01B
:100C7E00CEF01CC0CFF01DC0D0F0CDC001F0CEC064
:100C8E0002F0CFC003F0D0C004F0F6EC10F001C0BB
:100C9E00BBF002C0BCF0C9C01AF0CAC01BF0CBC07A
:100CAE001CF0CCC01DF0CDC005F0CEC006F0CFC0FC
:100CBE0007F0D0C008F0D8C001F0D9C002F0DAC0F9
:100CCE0003F0DBC004F03FEC0BF001C01EF002C0DD
:100CDE001FF003C020F004C021F015EC14F01AC070
:100CEE00C9F01BC0CAF01CC0CBF01DC0CCF0D8C0E0
:100CFE0001F0D9C002F0DAC003F0DBC004F0000E40
:100D0E00056E000E066E200E076E410E086E54EC38
:100D1E000DF001C0D8F002C0D9F003C0DAF004C063
:100D2E00DBF00001C74BC82BBD51C75DC851800A0F
:100D3E00356EBE51800A3558D8A0A8EF06F0AAEF3E
:100D4E0006F020EF06F0D8C001F0D9C002F0DAC0EC
:100D5E0003F0DBC004F0000E056E000E066EA00E52
:100D6E00076E400E086E3FEC0BF001C0CDF002C0D6
:100D7E00CEF003C0CFF004C0D0F0C9C01AF0CAC084
:100D8E001BF0CBC01CF0CCC01DF0CDC01EF0CEC0F1
:100D9E001FF0CFC020F0D0C021F079EC11F0D8B008
:100DAE00DBEF06F0DDEF06F0E8EF06F0000E0001D7
:100DBE00CD6F000ECE6F000ECF6F000ED06F11EF05
:100DCE0007F0C9C001F0CAC002F0CBC003F0CCC01E
:100DDE0004F0CDC005F0CEC006F0CFC007F0D0C0F5
:100DEE0008F0DFEC12F0D8A0FFEF06F001EF07F0ED
:100DFE0011EF07F00001BBB107EF07F009EF07F0A5
:100E0E0011EF07F0000ECD6F000ECE6F000ECF6FFC
:100E1E00000ED06FD4C001F0D5C002F0D6C003F0E2
:100E2E00D7C004F0CDC005F0CEC006F0CFC007F09D
:100E3E00D0C008F0DFEC08F001C0C9F002C0CAF063
:100E4E0003C0CBF004C0CCF0C9C01AF0CAC01BF06E
:100E5E00CBC01CF0CCC01DF0000E056E000E066E51
:100E6E00200E076E410E086EC3C001F0C4C002F022
:100E7E00C5C003F0C6C004F03FEC0BF001C01EF07D
:100E8E0002C01FF003C020F004C021F079EC11F075
:100E9E00D8A054EF07F056EF07F07FEF07F00001F0
:100EAE00BF4BC02BC3C001F0C4C002F0C5C003F0DD
:100EBE00C6C004F0000E056E000E066E200E076E04
:100ECE00410E086E3FEC0BF001C0C3F002C0C4F03F
:100EDE0003C0C5F004C0C6F0660E0001BA19D8A44E
:100EEE007BEF07F07DEF07F07FEF07F0BD4BBE2BDA
:100EFE00C3C0D8F0C4C0D9F0C5C0DAF0C6C0DBF0AC
:100F0E00BFC0B0F0C0C0B1F0000E0001B86F000E4F
:100F1E00B56F000EB46F000EC86F000EC76F77EF7F
:100F2E0008F0C9C001F0CAC002F0CBC003F0CCC0BB
:100F3E0004F0D8C005F0D9C006F0DAC007F0DBC067
:100F4E0008F054EC0DF001C01AF002C01BF003C003
:100F5E001CF004C01DF021EC0FF01AC0CDF01BC028
:100F6E00CEF01CC0CFF01DC0D0F0CDC001F0CEC071
:100F7E0002F0CFC003F0D0C004F0F6EC10F002BEC9
:100F8E00D4EF07F0025007E10A0E015CD8B0D2EFA1
:100F9E0007F0D4EF07F0E4EF07F0CDC001F0CEC0BC
:100FAE0002F0CFC003F0D0C004F0F6EC10F001C098
:100FBE00BBF002C0BCF0E9EF07F0000E0001BC6F01
:100FCE00090EBB6F0001B851D8A4F0EF07F0F2EF95
:100FDE0007F016EF08F0B1BFF9EF07F0F7EF07F0E3
:100FEE0016EF08F0D251600FD96EDA6A2E0EDF6E50
:100FFE00D24BD32BC107D8A0C207010EB86F16EF84
:10100E0008F0D251600FD96EDA6A300EDF6ED24B15
:10101E00D32BC107D8A0C207B407D8A0B507B451C7
:10102E00B511D8A41DEF08F01FEF08F008EF08F077
:10103E00D251600FD96EDA6ABB51300FDF6ED24BD0
:10104E00D32BC107D8A0C207C9C01AF0CAC01BF063
:10105E00CBC01CF0CCC01DF0CDC005F0CEC006F04C
:10106E00CFC007F0D0C008F0D8C001F0D9C002F050
:10107E00DAC003F0DBC004F03FEC0BF001C01EF051
:10108E0002C01FF003C020F004C021F015EC14F0D4
:10109E001AC0C9F01BC0CAF01CC0CBF01DC0CCF0EA
:1010AE00D8C001F0D9C002F0DAC003F0DBC004F002
:1010BE00000E056E000E066E200E076E410E086EB7
:1010CE0054EC0DF001C0D8F002C0D9F003C0DAF034
:1010DE0004C0DBF00001B007D8A0B107C74BC82B86
:1010EE00BD51C75DC851800A356EBE51800A355854
:1010FE00D8B084EF08F086EF08F094EF08F0D3BF75
:10110E0092EF08F0D35109E14B0ED25DD8A092EFC9
:10111E0008F094EF08F098EF07F0000EC86F4F0E2E
:10112E00C76FC751600FD96EDA6ADF6AD251600895
:10113E00C725016E600E026ED2C003F0D3C004F05C
:10114E0079EC14F00001D251C75DD26FD351C8595A
:10115E00D36FD151D8A4B6EF08F0B9EF08F0010E55
:10116E00BAEF08F0000EC76FC86BD151D8B4C2EFFA
:10117E0008F0C4EF08F0CDEF08F0D207D8A0D307DF
:10118E00D251600FD96EDA6AD1C0DFFFC751C15F8D
:10119E00C851C25B2EC010F02FC011F0D251600F9B
:1011AE00126EC1C013F0C2C014F0B5EC13F01200F1
:1011BE000450800B0D6E045004240F6E03AEEAEF44
:1011CE0008F0ECEF08F0EDEF08F00F800F50D8B4F8
:1011DE00F3EF08F0F5EF08F00AEF09F00F28D8A4A6
:1011EE00FBEF08F0FDEF08F005EF09F0000E016EC1
:1011FE00000E026E000E036E000E046E038E000EC5
:10120E00046E12EF09F0000E016E000E026E000E5B
:10121E00036E000E046E0850800B0E6E0D500E18ED
:10122E00D8B41CEF09F01EEF09F01FEF09F00D8C7A
:10123E00085008240E6E07AE27EF09F029EF09F0CB
:10124E002AEF09F00E800E50D8B430EF09F032EFCD
:10125E0009F047EF09F00E28D8A438EF09F03AEF5D
:10126E0009F042EF09F0000E056E000E066E000E3C
:10127E00076E000E086E078E000E086E4FEF09F017
:10128E00000E056E000E066E000E076E000E086E46
:10129E000F500E5CD8B056EF09F058EF09F07FEF03
:1012AE0009F00DAC5DEF09F05FEF09F061EF09F0A9
:1012BE00800E0D1A0FC010F00EC00FF010C00EF001
:1012CE0001C010F005C001F010C005F002C010F012
:1012DE0006C002F010C006F003C010F007C003F005
:1012EE0010C007F004C010F008C004F010C008F0E1
:1012FE00000E106E0F500EC009F00A6A095E000E45
:10130E000A5A0ABE94EF09F00A5009E11A0E095C56
:10131E00D8A094EF09F096EF09F0CDEF09F0015047
:10132E00021003100410D8A49FEF09F0A2EF09F0E9
:10133E00010EA3EF09F0000E106E000E016E000EEE
:10134E00026E000E036E000E046E0EC00FF0D6EF8E
:10135E0009F010A0B5EF09F0B7EF09F0BDEF09F0F5
:10136E00D89010300109106EBFEF09F0D8901032EE
:10137E0001A0C4EF09F0C6EF09F0C7EF09F0108E17
:10138E00043404320332023201320F2A0E500F5C43
:10139E00D8A0D4EF09F0D6EF09F0B0EF09F00DBCEC
:1013AE00DBEF09F0DDEF09F01DEF0AF00F50D8A4C6
:1013BE00E3EF09F0E5EF09F0EFEF09F0000E016E33
:1013CE00000E026E000E036E000E046E3EEF0BF06A
:1013DE00055001260650022207500322085004220F
:1013EE0004A0FCEF09F0FEEF09F0AAEF0AF010A03E
:1013FE0003EF0AF005EF0AF00BEF0AF0D890103069
:10140E000109106E0DEF0AF0D890103201A012EF04
:10141E000AF014EF0AF015EF0AF0108E04340432BD
:10142E000332023201320F2AAAEF0AF00550015C94
:10143E0006500258075003580450800A096E08508F
:10144E00800A0958D8B02EEF0AF030EF0AF05BEFA1
:10145E000AF00150055C096E025006580A6E0350E0
:10146E0007580B6E045008580C6EFF0E0924016EBF
:10147E00FF0E0A20026EFF0E0B20036EFF0E0C20D5
:10148E00046E800E0D1A106C1050D8A451EF0AF095
:10149E0053EF0AF063EF0AF0010E0126000E02224E
:1014AE000322042263EF0AF00550015E0650025A31
:1014BE000750035A0850045A01500210031004102A
:1014CE00D8A46CEF0AF06EEF0AF0A3EF0AF01050FA
:1014DE00D8A474EF0AF076EF0AF0A3EF0AF0000E2C
:1014EE00016E000E026E000E036E000E046E3EEFD5
:1014FE000BF0D890013602360336043610AE8AEF62
:10150E000AF08CEF0AF08DEF0AF0018010A092EF36
:10151E000AF094EF0AF098EF0AF0D88010369AEF9E
:10152E000AF0D89010360F50D8B4A0EF0AF0A2EF00
:10153E000AF0A3EF0AF00F0603AEA8EF0AF0AAEF27
:10154E000AF080EF0AF0000E0E6E10AEB1EF0AF048
:10155E00B3EF0AF0CBEF0AF010C009F07F0E0916B8
:10156E00D8B4BCEF0AF0BEEF0AF0C2EF0AF0010EDB
:10157E000E6ECBEF0AF001A0C7EF0AF0C9EF0AF02A
:10158E00CBEF0AF0BEEF0AF00E50D8B4D1EF0AF04E
:10159E00D3EF0AF0FEEF0AF0010E0126000E022232
:1015AE000322042204A0DEEF0AF0E0EF0AF0FEEFC1
:1015BE000AF001C009F002C00AF003C00BF004C02B
:1015CE000CF00C340C320B320A32093209C001F025
:1015DE000AC002F00BC003F00CC004F00F28D8B400
:1015EE00FBEF0AF0FDEF0AF0FEEF0AF00F2A0F28CC
:1015FE00D8B404EF0BF006EF0BF00EEF0BF00F501C
:10160E00D8A40CEF0BF00EEF0BF020EF0BF0000E4A
:10161E00016E000E026E000E036E000E046E0F5071
:10162E00D8A41CEF0BF01EEF0BF020EF0BF0000E0A
:10163E000D6E0FA025EF0BF027EF0BF02AEF0BF03E
:10164E00038E2BEF0BF0039ED8900F30046E0DAE71
:10165E0033EF0BF035EF0BF036EF0BF0048E01C0CD
:10166E0001F002C002F003C003F004C004F0120047
:10167E000450800B0D6E04500424136E03AE4AEF1B
:10168E000BF04CEF0BF04DEF0BF013801350D8B462
:10169E0053EF0BF055EF0BF068EF0BF01328D8A4B7
:1016AE005BEF0BF05DEF0BF065EF0BF0000E016ED4
:1016BE00000E026E000E036E000E046E038E70EFAF
:1016CE000BF0000E016E000E026E000E036E000E89
:1016DE00046E0850800B0D1A08500824126E07AEC7
:1016EE007BEF0BF07DEF0BF07EEF0BF012801250C4
:1016FE00D8B484EF0BF086EF0BF099EF0BF01228B5
:10170E00D8A48CEF0BF08EEF0BF096EF0BF0000ED3
:10171E00056E000E066E000E076E000E086E078E2A
:10172E00A1EF0BF0000E056E000E066E000E076E9A
:10173E00000E086E1250D8B4A7EF0BF0A9EF0BF005
:10174E00B1EF0BF01350D8A4AFEF0BF0B1EF0BF0DD
:10175E00BBEF0BF0000E016E000E026E000E036E5C
:10176E00000E046E53EF0DF007500102F3CF18F088
:10177E00F4CF19F018500E6E0F6A106A116A1950D4
:10178E00146E156A166A176A06500202F3CF18F025
:10179E00F4CF19F018500E26000E0F22102211222F
:1017AE0019501426000E1522162217220550030278
:1017BE00F3CF18F0F4CF19F018500E26000E0F22AA
:1017CE001022112219501426000E1522162217224D
:1017DE0010C011F00FC010F00EC00FF00E6A0550C1
:1017EE000202F3CF18F0F4CF19F018500E2619504C
:1017FE000F22000E1022000E112206500102F3CF0E
:10180E0018F0F4CF19F018500E2619500F22000EB2
:10181E001022000E112210C011F00FC010F00EC0D9
:10182E000FF00E6A05500102F3CF18F0F4CF19F045
:10183E0018500E2619500F22000E1022000E1122E3
:10184E0007500202F3CF18F0F4CF19F018501426F7
:10185E0019501522000E1622000E172206500302F2
:10186E00F3CF18F0F4CF19F0185014261950152292
:10187E00000E1622000E172207500302F3CF18F0A7
:10188E00F4CF19F01850096E19500A6E0B6A0C6AD3
:10189E000BC00CF00AC00BF009C00AF0096A09501F
:1018AE0014260A5015220B5016220C5017220EC069
:1018BE0009F00FC00AF010C00BF011C00CF0190E99
:1018CE006EEF0CF0D8900C320B320A320932E82E41
:1018DE0069EF0CF0095014260A5015220B501622EF
:1018EE000C50172210C011F00FC010F00EC00FF0E8
:1018FE000E6A125013C009F00A6A0926000E0A2257
:10190E00820E0924186EFF0E0A20196EA4EF0CF039
:10191E00D890143615361636173611AE99EF0CF0E0
:10192E009BEF0CF09CEF0CF01480D8900E360F3617
:10193E00103611361806D8A0190616AEA9EF0CF0FF
:10194E00ABEF0CF08FEF0CF0000E126E11AEB2EF8B
:10195E000CF0B4EF0CF0D8EF0CF0FF0E0E14096E75
:10196E00FF0E0F140A6EFF0E10140B6E7F0E111465
:10197E000C6E09500A100B100C10D8B4C9EF0CF0F5
:10198E00CBEF0CF0CFEF0CF0010E126ED8EF0CF087
:10199E0014A0D4EF0CF0D6EF0CF0D8EF0CF0CBEF88
:1019AE000CF01250D8B4DEEF0CF0E0EF0CF004EFB8
:1019BE000DF0010E1426000E15221622172217A066
:1019CE00EBEF0CF0EDEF0CF004EF0DF014C009F09E
:1019DE0015C00AF016C00BF017C00CF00C340C3208
:1019EE000B320A32093209C014F00AC015F00BC0CE
:1019FE0016F00CC017F0184A192A19BE0FEF0DF089
:101A0E00195008E11828D8A00FEF0DF011EF0DF0C6
:101A1E001BEF0DF0000E146E000E156E800E166E7E
:101A2E007F0E176E49EF0DF019BE28EF0DF019500D
:101A3E0006E11804D8B026EF0DF028EF0DF034EFC4
:101A4E000DF0000E146E000E156E000E166E000ECA
:101A5E00176E000E0D6E49EF0DF018C013F0FF0E4D
:101A6E001416FF0E15167F0E1616000E171613A05F
:101A7E0043EF0DF045EF0DF046EF0DF0168ED890BA
:101A8E001330176E0D50171214C001F015C002F06E
:101A9E0016C003F017C004F012000450800B116E34
:101AAE0004500424186E03AE5FEF0DF061EF0DF0DD
:101ABE0062EF0DF018801850D8B468EF0DF06AEF91
:101ACE000DF07FEF0DF01828D8A470EF0DF072EF27
:101ADE000DF07AEF0DF0000E016E000E026E000E8C
:101AEE00036E000E046E038E000E046E87EF0DF073
:101AFE00000E016E000E026E000E036E000E046EDE
:101B0E000850800B111A08500824196E07AE92EF78
:101B1E000DF094EF0DF095EF0DF019801950D8B42B
:101B2E009BEF0DF09DEF0DF0B2EF0DF01928D8A43C
:101B3E00A3EF0DF0A5EF0DF0ADEF0DF0000E056E5D
:101B4E00000E066E000E076E000E086E078E000E5B
:101B5E00086EBAEF0DF0000E056E000E066E000E4A
:101B6E00076E000E086E0550061007100810D8A458
:101B7E00C3EF0DF0C5EF0DF0DDEF0DF0000E016EB1
:101B8E00000E026E000E036E000E046E800E031227
:101B9E007F0E04121150041201C001F002C002F0B7
:101BAE0003C003F004C004F020EF0FF01850D8A4C7
:101BBE00E3EF0DF0E5EF0DF0EFEF0DF0000E016E1F
:101BCE00000E026E000E036E000E046E20EF0FF07C
:101BDE00195018C009F00A6A095E000E0A5A7F0EE3
:101BEE000924126E000E0A20136E01C00DF002C001
:101BFE000EF003C00FF004C010F0000E016E000EC8
:101C0E00026E000E036E000E046E000E146E000EB9
:101C1E00156E000E166E000E176E000E196E50EF3A
:101C2E000EF01950D8B41EEF0EF020EF0EF037EF75
:101C3E000EF0D8900D360E360F361036D89001367F
:101C4E0002360336043617AE2FEF0EF031EF0EF0DC
:101C5E0032EF0EF00180D890143615361636173640
:101C6E0005500D5C06500E5807500F58085010586E
:101C7E00D8A044EF0EF046EF0EF04FEF0EF0178C9B
:101C8E0005500D5E06500E5A07500F5A0850105A46
:101C9E00192A190E196456EF0EF058EF0EF018EFC0
:101CAE000EF00D500E100F101010D8B461EF0EF094
:101CBE0063EF0EF07BEF0EF014807BEF0EF0D890FA
:101CCE00013602360336043617AE70EF0EF072EFA1
:101CDE000EF073EF0EF00180D890143615361636CE
:101CEE0017361206D8A0130603AE80EF0EF082EF61
:101CFE000EF066EF0EF0000E196E17AE89EF0EF0B5
:101D0E008BEF0EF0AFEF0EF0FF0E1414096EFF0EF8
:101D1E0015140A6EFF0E16140B6E7F0E17140C6E32
:101D2E0009500A100B100C10D8B4A0EF0EF0A2EF51
:101D3E000EF0A6EF0EF0010E196EAFEF0EF001A031
:101D4E00ABEF0EF0ADEF0EF0AFEF0EF0A2EF0EF028
:101D5E001950D8B4B5EF0EF0B7EF0EF0DBEF0EF072
:101D6E00010E0126000E02220322042204A0C2EF5D
:101D7E000EF0C4EF0EF0DBEF0EF001C009F002C062
:101D8E000AF003C00BF004C00CF00C340C320B3212
:101D9E000A32093209C001F00AC002F00BC003F08A
:101DAE000CC004F0124A132A13BEE6EF0EF01350C5
:101DBE0008E11228D8A0E6EF0EF0E8EF0EF0F3EFF0
:101DCE000EF0000E136E1268000E016E000E026E03
:101DDE00000E036E000E046E13BE00EF0FF01350D4
:101DEE0006E11204D8B0FEEF0EF000EF0FF00EEF8A
:101DFE000FF0000E136E000E126E000E016E000E2E
:101E0E00026E000E036E000E046E000E116E12C0F6
:101E1E0018F018A015EF0FF017EF0FF01AEF0FF0E4
:101E2E00038E1BEF0FF0039ED8901830046ED1EF87
:101E3E000DF0120049C02AF04AC02BF04BC02CF016
:101E4E004CC02DF01AC02AF01BC02BF01CC02CF079
:101E5E001DC02DF0810E1E6EFF0E1F6E2AC020F0CB
:101E6E002BC021F02CC022F02DC023F0180E45EF10
:101E7E000FF0D8902332223221322032E82E40EF5A
:101E8E000FF020501E24286E000E1F20296E29BE32
:101E9E005AEF0FF0295009E1170E285CD8A05AEF1F
:101EAE000FF05CEF0FF066EF0FF01AC01AF01BC0C8
:101EBE001BF01CC01CF01DC01DF029EF10F029BE38
:101ECE006BEF0FF06DEF0FF0DDEF0FF028C01EF08F
:101EDE00FF0E1F6EFF0E206E7F0E216E000E226E05
:101EEE001E667CEF0FF084EF0FF022342232213287
:101EFE0020321F321E2E77EF0FF01FC024F020C0AD
:101F0E0025F021C026F022C027F024502A141E6E80
:101F1E0025502B141F6E26502C14206E27502D1476
:101F2E00216E1E501F1020102110D8A4A1EF0FF00B
:101F3E00A3EF0FF0A5EF0FF05CEF0FF02AC01EF02D
:101F4E002BC01FF02CC020F02DC021F0200EB5EFBD
:101F5E000FF0D890213220321F321E32E82EB0EF11
:101F6E000FF01E501F1020102110D8B4C1EF0FF02B
:101F7E00C3EF0FF0CBEF0FF024502A2625502B2263
:101F8E0026502C2227502D22241C1E6E251C1F6E1F
:101F9E00261C206E271C216E1E502A161F502B1633
:101FAE0020502C1621502D1621EF10F02AC01EF0B5
:101FBE002BC01FF02CC020F02DC021F0200EEDEF15
:101FCE000FF0D890213220321F321E32E82EE8EF69
:101FDE000FF01E501F1020102110D8A4F9EF0FF093
:101FEE00FBEF0FF005EF10F0000E2A6E000E2B6EB9
:101FFE00000E2C6E000E2D6E21EF10F0D8902A34AC
:10200E001E6E2B341F6E2C34206E2D34216E1E50FE
:10201E001F1020102110D8B417EF10F019EF10F088
:10202E0021EF10F0000E2A6E000E2B6E800E2C6E1D
:10203E00BF0E2D6E2AC01AF02BC01BF02CC01CF048
:10204E002DC01DF012003850D96EDA6ADFCFF6FFC0
:10205E00080EF76E0800F550250AD8A439EF10F0D7
:10206E003BEF10F0E2EF10F03850D96EDA6ADF2A4B
:10207E00000E526E000E516E51C055F053685468EA
:10208E003850D96EDA6ADF50406E40C0F6FF080E47
:10209E00F76E0800F5CF3FF060EF10F0402A6FEFBB
:1020AE0010F06C0E3F6E6FEF10F0000E3F6E6FEF84
:1020BE0010F03F504C0AD8B455EF10F02A0AD8B49D
:1020CE0058EF10F00A0AD8B455EF10F05CEF10F08C
:1020DE0040C0F6FF080EF76E0800F550660AD8A449
:1020EE007BEF10F07DEF10F0DCEF10F0A7EF10F0AB
:1020FE003950D96EDA6ADFCF3AF0040EDF263A5045
:10210E00D96EDA6ADECF3BF0DECF3CF0DECF3DF0AB
:10211E00DECF3EF0B2EF10F03950D96EDA6ADFCF73
:10212E003AF0040EDF263A50D96EDA6ADECF3BF073
:10213E00DECF3CF0DECF3DF0DECF3EF0B2EF10F062
:10214E003F504C0AD8B493EF10F0200AD8B47FEF6A
:10215E0010F0B2EF10F03850D96EDA6A4028DF6E08
:10216E00D0EF10F036C02EF037C02FF03BC030F05D
:10217E003CC031F03DC032F03EC033F040C0F6FFFF
:10218E00080EF76E0800F5CF34F007EC04F0F5EF0B
:10219E0010F040C0F6FF080EF76E0800F550660A04
:1021AE00D8B4B9EF10F0DCEF10F03850D96EDA6A0F
:1021BE00DF2AF5EF10F03850D96EDA6ADFCFF6FF6E
:1021CE00080EF76E0800F550016E026A36C003F075
:1021DE0037C004F07AEC12F0DCEF10F0120003348A
:1021EE0004340A6E0A50D8A4FFEF10F001EF11F07C
:1021FE000BEF11F0000E016E000E026E000E036E5C
:10220E00000E046E78EF11F001C005F002C006F06A
:10221E0003C007F004C008F0200E1BEF11F0D89099
:10222E000832073206320532E82E16EF11F005504D
:10223E00096E038EFF0E0116FF0E0216FF0E031619
:10224E00000E0416960E0A5E0ABE32EF11F030EF43
:10225E0011F048EF11F00A50800A970FD8B03AEFFC
:10226E0011F03CEF11F03EEF11F001EF11F0D890AC
:10227E0004320332023201320A3E3EEF11F060EFB9
:10228E0011F01F0E0A644EEF11F050EF11F058EFDF
:10229E0011F001EF11F0D8900136023603360436F4
:1022AE000A060A50D8A45EEF11F060EF11F052EF5B
:1022BE0011F00950D8B466EF11F068EF11F070EF1D
:1022CE0011F0041E031E021E016C000E02220322D8
:1022DE00042201C001F002C002F003C003F004C0EA
:1022EE0004F01200000E1A14226E000E1B14236E40
:1022FE00800E1C14246E7F0E1D14256E225023108A
:10230E0024102510D8A48EEF11F090EF11F098EF55
:10231E0011F0000E1A6E000E1B6E000E1C6E000EDB
:10232E001D6E000E1E14226E000E1F14236E800EE4
:10233E002014246E7F0E2114256E2250231024109B
:10234E002510D8A4ADEF11F0AFEF11F0B7EF11F0EB
:10235E00000E1E6E000E1F6E000E206E000E216E01
:10236E001DAEBCEF11F0BEEF11F0C7EF11F01A6CFD
:10237E001B1ED8B01B2A1C1ED8B01C2A800E1D5640
:10238E0021AECCEF11F0CEEF11F0D7EF11F01E6CA5
:10239E001F1ED8B01F2A201ED8B0202A800E21560C
:1023AE00000E1A1A000E1B1A000E1C1A800E1D1A91
:1023BE00000E1E1A000E1F1A000E201A800E211A71
:1023CE001E501A5C1F501B5820501C5821501D586F
:1023DE00D8B0F4EF11F0F6EF11F0F9EF11F0D8904C
:1023EE00FAEF11F0D88012004DC00BF04EC00CF079
:1023FE004FC00DF050C00EF001C00BF002C00CF03B
:10240E0003C00DF004C00EF00BC005F00CC006F0BA
:10241E000DC007F00EC008F0180E1BEF12F0D8908A
:10242E000832073206320532E82E16EF12F005504A
:10243E00096E0A6A09500A10D8A428EF12F02AEF82
:10244E0012F04AEF12F0D8900B34056E0C34066E73
:10245E000D34076E0E34086E055006100710081066
:10246E00D8A43CEF12F03EEF12F044EF12F0000E43
:10247E00026E020E016E79EF12F0000E026E030E66
:10248E00016E79EF12F009280A10D8A451EF12F05C
:10249E0053EF12F075EF12F00BC005F00CC006F002
:1024AE000DC007F00EC008F0090ED890053606369E
:1024BE0007360836E82E5CEF12F0055006100710AE
:1024CE000810D8B46DEF12F070EF12F0010E71EF2C
:1024DE0012F0000E016E026A79EF12F0000E026E1B
:1024EE00040E016E120003500410D8B481EF12F0E6
:1024FE0083EF12F08CEF12F003500410D8A48AEF81
:10250E0012F08CEF12F091EF12F00150ECEC14F08F
:10251E00DEEF12F020EE0AF00350D9260450DA2234
:10252E00DE50DE10D8B49EEF12F0A0EF12F0BBEF2B
:10253E0012F020EE0AF00350D9260450DA2210EEE3
:10254E0003F00350E1260450E222DE50E65CE65032
:10255E00800A096EDE50800A0958D8B0B9EF12F021
:10256E00BBEF12F0DEEF12F020EE03F00350D9268F
:10257E000450DA22DECF05F0DDCF06F003C0D9FF1E
:10258E0004C0DAFFDECF07F0DDCF08F005500724D8
:10259E00D96E06500820DA6E01C0DFFF20EE03F080
:1025AE000350D9260450DA22DE2A000EDD22120054
:1025BE00000E0114096E000E02140A6E800E031432
:1025CE000B6E7F0E04140C6E09500A100B100C10BB
:1025DE00D8A4F4EF12F0F6EF12F0FEEF12F0000EA8
:1025EE00016E000E026E000E036E000E046E000EE3
:1025FE000514096E000E06140A6E800E07140B6E7B
:10260E007F0E08140C6E09500A100B100C10D8A473
:10261E0013EF13F015EF13F01DEF13F0000E056E10
:10262E00000E066E000E076E000E086E05500118A5
:10263E000FE1065002180CE10750031809E108508B
:10264E000418D8B42DEF13F02FEF13F032EF13F070
:10265E00D89033EF13F0D8801200000E086E000EE3
:10266E00076E000E0A6E000E096E68EF13F0D8901A
:10267E000934D96E0A34DA6E0150D9260250DA22A4
:10268E00DECF0BF0DDCF0CF05DEF13F00BA052EFB1
:10269E0013F054EF13F056EF13F0074A082A0C34D8
:1026AE000C30056E0B300B6E05C00CF00B500C1081
:1026BE00D8A464EF13F066EF13F04DEF13F0094A50
:1026CE000A2A0950035C0450800A056E0A50800ADB
:1026DE000558D8B075EF13F077EF13F03EEF13F007
:1026EE0007C001F008C002F01200000E0101C96F10
:1026FE00000EC86FC8C147F0C9C148F0D890473620
:10270E004836D890C835D96EC935DA6E000ED9263E
:10271E00010EDA2247C0DEFF48C0DDFFC84BC92BD1
:10272E00C9BFA3EF13F0C95109E1640EC85DD8A06B
:10273E00A3EF13F0A5EF13F081EF13F0000E016E6F
:10274E00010E026E000E046E0A0E036E34EC13F0D0
:10275E0001C0CAF102C0CBF100EF00F014BEBCEF15
:10276E0013F0BAEF13F0C0EF13F0000E146E000E5C
:10277E00136E000E176E000E166ED2EF13F0000ED3
:10278E00026E200E016E10C003F011C004F07AEC40
:10279E0012F0164A172A1350165C1750800A156E3F
:1027AE001450800A1558D8A0DFEF13F0E1EF13F0A4
:1027BE00C6EF13F012C00AF010C00BF011C00CF0EF
:1027CE0059EC14F0120004BEEFEF13F0F1EF13F01A
:1027DE00FBEF13F001C001F002C002F003C003F0E2
:1027EE0004C004F014EF14F001C005F002C006F0AE
:1027FE0003C007F004C008F0051E061E071E081EC3
:10280E00052A000E06220722082205C001F006C086
:10281E0002F007C003F008C004F01200000E1E1AEA
:10282E00000E1F1A000E201A800E211A1AC001F077
:10283E001BC002F01CC003F01DC004F01EC005F04A
:10284E001FC006F020C007F021C008F0DFEC08F032
:10285E0001C01AF002C01BF003C01CF004C01DF032
:10286E00120043C045F046EF14F041C036F042C0AE
:10287E0037F0450E386E44C039F02AEC10F045C0E2
:10288E00F6FF080EF76E0800F5500009D8A452EFB7
:10289E0014F054EF14F03CEF14F0000E426E000EE4
:1028AE00416E1200000E0F6E000E0E6E6AEF14F0E7
:1028BE000DC001F0026A0BC003F00CC004F07AECFC
:1028CE0012F00E4A0F2A0A500E24D96EDA6ADF5021
:1028DE000D6E0D50D8A476EF14F078EF14F05FEF74
:1028EE0014F0120002C007F001C006F08BEF14F0D6
:1028FE000750D96EDA6ADF50056E072A0650D96E78
:10290E00DA6A05C0DFFF062A0306D8A004060328EC
:10291E0006E10428D8A496EF14F098EF14F07FEF98
:10292E0014F012000150021003100410D8B4A2EFDC
:10293E0014F0A4EF14F0ACEF14F0000E011A000E18
:10294E00021A000E031A800E041A01C001F002C012
:10295E0002F003C003F004C004F0120001C004F042
:10296E00022A0204036E03C0F6FF080EF76E042A55
:10297E000404D96EDA6A0800F5CFDFFFDF50D8A461
:10298E00CBEF14F0CDEF14F0B7EF14F0120000EE11
:10299E0060F0500EEE6AE806FDE100EE49F00D0E15
:1029AE00EE6AE806FDE1000EF86E00017CEF13F012
:1029BE00DD0E466E000E416E000E426EDCC043F020
:0C29CE00460E446E38EC14F012001200AB
:020000040020DA
:08000000FFFFFFFFFFFFFFFF00
:020000040030CA
:0E00000000255F3FFFD385FF0FC00FE00F40CC
:00000001FF
